{
  "_format": "hh-sol-artifact-1",
  "contractName": "Domains",
  "sourceName": "contracts/Domains.sol",
  "abi": [
    {
      "inputs": [
        {
          "internalType": "string",
          "name": "_tld",
          "type": "string"
        }
      ],
      "stateMutability": "payable",
      "type": "constructor"
    },
    {
      "inputs": [],
      "name": "AlreadyRegistered",
      "type": "error"
    },
    {
      "inputs": [
        {
          "internalType": "string",
          "name": "name",
          "type": "string"
        }
      ],
      "name": "InvalidName",
      "type": "error"
    },
    {
      "inputs": [],
      "name": "Unauthorized",
      "type": "error"
    },
    {
      "anonymous": false,
      "inputs": [
        {
          "indexed": true,
          "internalType": "address",
          "name": "owner",
          "type": "address"
        },
        {
          "indexed": true,
          "internalType": "address",
          "name": "approved",
          "type": "address"
        },
        {
          "indexed": true,
          "internalType": "uint256",
          "name": "tokenId",
          "type": "uint256"
        }
      ],
      "name": "Approval",
      "type": "event"
    },
    {
      "anonymous": false,
      "inputs": [
        {
          "indexed": true,
          "internalType": "address",
          "name": "owner",
          "type": "address"
        },
        {
          "indexed": true,
          "internalType": "address",
          "name": "operator",
          "type": "address"
        },
        {
          "indexed": false,
          "internalType": "bool",
          "name": "approved",
          "type": "bool"
        }
      ],
      "name": "ApprovalForAll",
      "type": "event"
    },
    {
      "anonymous": false,
      "inputs": [
        {
          "indexed": true,
          "internalType": "address",
          "name": "from",
          "type": "address"
        },
        {
          "indexed": true,
          "internalType": "address",
          "name": "to",
          "type": "address"
        },
        {
          "indexed": true,
          "internalType": "uint256",
          "name": "tokenId",
          "type": "uint256"
        }
      ],
      "name": "Transfer",
      "type": "event"
    },
    {
      "inputs": [
        {
          "internalType": "address",
          "name": "to",
          "type": "address"
        },
        {
          "internalType": "uint256",
          "name": "tokenId",
          "type": "uint256"
        }
      ],
      "name": "approve",
      "outputs": [],
      "stateMutability": "nonpayable",
      "type": "function"
    },
    {
      "inputs": [
        {
          "internalType": "address",
          "name": "owner",
          "type": "address"
        }
      ],
      "name": "balanceOf",
      "outputs": [
        {
          "internalType": "uint256",
          "name": "",
          "type": "uint256"
        }
      ],
      "stateMutability": "view",
      "type": "function"
    },
    {
      "inputs": [
        {
          "internalType": "string",
          "name": "",
          "type": "string"
        }
      ],
      "name": "domains",
      "outputs": [
        {
          "internalType": "address",
          "name": "",
          "type": "address"
        }
      ],
      "stateMutability": "view",
      "type": "function"
    },
    {
      "inputs": [
        {
          "internalType": "string",
          "name": "name",
          "type": "string"
        }
      ],
      "name": "getAddress",
      "outputs": [
        {
          "internalType": "address",
          "name": "",
          "type": "address"
        }
      ],
      "stateMutability": "view",
      "type": "function"
    },
    {
      "inputs": [],
      "name": "getAllNames",
      "outputs": [
        {
          "internalType": "string[]",
          "name": "",
          "type": "string[]"
        }
      ],
      "stateMutability": "view",
      "type": "function"
    },
    {
      "inputs": [
        {
          "internalType": "uint256",
          "name": "tokenId",
          "type": "uint256"
        }
      ],
      "name": "getApproved",
      "outputs": [
        {
          "internalType": "address",
          "name": "",
          "type": "address"
        }
      ],
      "stateMutability": "view",
      "type": "function"
    },
    {
      "inputs": [
        {
          "internalType": "string",
          "name": "name",
          "type": "string"
        }
      ],
      "name": "getRecord",
      "outputs": [
        {
          "internalType": "string",
          "name": "",
          "type": "string"
        }
      ],
      "stateMutability": "view",
      "type": "function"
    },
    {
      "inputs": [
        {
          "internalType": "address",
          "name": "owner",
          "type": "address"
        },
        {
          "internalType": "address",
          "name": "operator",
          "type": "address"
        }
      ],
      "name": "isApprovedForAll",
      "outputs": [
        {
          "internalType": "bool",
          "name": "",
          "type": "bool"
        }
      ],
      "stateMutability": "view",
      "type": "function"
    },
    {
      "inputs": [],
      "name": "isOwner",
      "outputs": [
        {
          "internalType": "bool",
          "name": "",
          "type": "bool"
        }
      ],
      "stateMutability": "view",
      "type": "function"
    },
    {
      "inputs": [],
      "name": "name",
      "outputs": [
        {
          "internalType": "string",
          "name": "",
          "type": "string"
        }
      ],
      "stateMutability": "view",
      "type": "function"
    },
    {
      "inputs": [
        {
          "internalType": "uint256",
          "name": "",
          "type": "uint256"
        }
      ],
      "name": "names",
      "outputs": [
        {
          "internalType": "string",
          "name": "",
          "type": "string"
        }
      ],
      "stateMutability": "view",
      "type": "function"
    },
    {
      "inputs": [],
      "name": "owner",
      "outputs": [
        {
          "internalType": "address payable",
          "name": "",
          "type": "address"
        }
      ],
      "stateMutability": "view",
      "type": "function"
    },
    {
      "inputs": [
        {
          "internalType": "uint256",
          "name": "tokenId",
          "type": "uint256"
        }
      ],
      "name": "ownerOf",
      "outputs": [
        {
          "internalType": "address",
          "name": "",
          "type": "address"
        }
      ],
      "stateMutability": "view",
      "type": "function"
    },
    {
      "inputs": [
        {
          "internalType": "string",
          "name": "name",
          "type": "string"
        }
      ],
      "name": "price",
      "outputs": [
        {
          "internalType": "uint256",
          "name": "",
          "type": "uint256"
        }
      ],
      "stateMutability": "pure",
      "type": "function"
    },
    {
      "inputs": [
        {
          "internalType": "string",
          "name": "",
          "type": "string"
        }
      ],
      "name": "records",
      "outputs": [
        {
          "internalType": "string",
          "name": "",
          "type": "string"
        }
      ],
      "stateMutability": "view",
      "type": "function"
    },
    {
      "inputs": [
        {
          "internalType": "string",
          "name": "name",
          "type": "string"
        },
        {
          "internalType": "string",
          "name": "record",
          "type": "string"
        }
      ],
      "name": "register",
      "outputs": [],
      "stateMutability": "payable",
      "type": "function"
    },
    {
      "inputs": [
        {
          "internalType": "address",
          "name": "from",
          "type": "address"
        },
        {
          "internalType": "address",
          "name": "to",
          "type": "address"
        },
        {
          "internalType": "uint256",
          "name": "tokenId",
          "type": "uint256"
        }
      ],
      "name": "safeTransferFrom",
      "outputs": [],
      "stateMutability": "nonpayable",
      "type": "function"
    },
    {
      "inputs": [
        {
          "internalType": "address",
          "name": "from",
          "type": "address"
        },
        {
          "internalType": "address",
          "name": "to",
          "type": "address"
        },
        {
          "internalType": "uint256",
          "name": "tokenId",
          "type": "uint256"
        },
        {
          "internalType": "bytes",
          "name": "_data",
          "type": "bytes"
        }
      ],
      "name": "safeTransferFrom",
      "outputs": [],
      "stateMutability": "nonpayable",
      "type": "function"
    },
    {
      "inputs": [
        {
          "internalType": "address",
          "name": "operator",
          "type": "address"
        },
        {
          "internalType": "bool",
          "name": "approved",
          "type": "bool"
        }
      ],
      "name": "setApprovalForAll",
      "outputs": [],
      "stateMutability": "nonpayable",
      "type": "function"
    },
    {
      "inputs": [
        {
          "internalType": "string",
          "name": "name",
          "type": "string"
        },
        {
          "internalType": "string",
          "name": "record",
          "type": "string"
        }
      ],
      "name": "setRecord",
      "outputs": [],
      "stateMutability": "nonpayable",
      "type": "function"
    },
    {
      "inputs": [
        {
          "internalType": "bytes4",
          "name": "interfaceId",
          "type": "bytes4"
        }
      ],
      "name": "supportsInterface",
      "outputs": [
        {
          "internalType": "bool",
          "name": "",
          "type": "bool"
        }
      ],
      "stateMutability": "view",
      "type": "function"
    },
    {
      "inputs": [],
      "name": "symbol",
      "outputs": [
        {
          "internalType": "string",
          "name": "",
          "type": "string"
        }
      ],
      "stateMutability": "view",
      "type": "function"
    },
    {
      "inputs": [],
      "name": "tld",
      "outputs": [
        {
          "internalType": "string",
          "name": "",
          "type": "string"
        }
      ],
      "stateMutability": "view",
      "type": "function"
    },
    {
      "inputs": [
        {
          "internalType": "uint256",
          "name": "tokenId",
          "type": "uint256"
        }
      ],
      "name": "tokenURI",
      "outputs": [
        {
          "internalType": "string",
          "name": "",
          "type": "string"
        }
      ],
      "stateMutability": "view",
      "type": "function"
    },
    {
      "inputs": [
        {
          "internalType": "address",
          "name": "from",
          "type": "address"
        },
        {
          "internalType": "address",
          "name": "to",
          "type": "address"
        },
        {
          "internalType": "uint256",
          "name": "tokenId",
          "type": "uint256"
        }
      ],
      "name": "transferFrom",
      "outputs": [],
      "stateMutability": "nonpayable",
      "type": "function"
    },
    {
      "inputs": [
        {
          "internalType": "string",
          "name": "name",
          "type": "string"
        }
      ],
      "name": "valid",
      "outputs": [
        {
          "internalType": "bool",
          "name": "",
          "type": "bool"
        }
      ],
      "stateMutability": "pure",
      "type": "function"
    },
    {
      "inputs": [],
      "name": "withdraw",
      "outputs": [],
      "stateMutability": "nonpayable",
      "type": "function"
    }
  ],
  "bytecode": "0x608060405260405162005d3038038062005d30833981810160405281019062000029919062000492565b6040518060400160405280601281526020017f4d75736963204e616d65205365727669636500000000000000000000000000008152506040518060400160405280600381526020017f4d555300000000000000000000000000000000000000000000000000000000008152508160009080519060200190620000ad92919062000245565b508060019080519060200190620000c692919062000245565b50505033600860006101000a81548173ffffffffffffffffffffffffffffffffffffffff021916908373ffffffffffffffffffffffffffffffffffffffff16021790555080600990805190602001906200012292919062000245565b506200016f6040518060400160405280601981526020017f2573206e616d652073657276696365206465706c6f7965642100000000000000815250826200017660201b62001bba1760201c565b50620005e0565b6200021882826040516024016200018f92919062000540565b6040516020818303038152906040527f4b5c4277000000000000000000000000000000000000000000000000000000007bffffffffffffffffffffffffffffffffffffffffffffffffffffffff19166020820180517bffffffffffffffffffffffffffffffffffffffffffffffffffffffff83818316178352505050506200021c60201b60201c565b5050565b60008151905060006a636f6e736f6c652e6c6f679050602083016000808483855afa5050505050565b8280546200025390620005aa565b90600052602060002090601f016020900481019282620002775760008555620002c3565b82601f106200029257805160ff1916838001178555620002c3565b82800160010185558215620002c3579182015b82811115620002c2578251825591602001919060010190620002a5565b5b509050620002d29190620002d6565b5090565b5b80821115620002f1576000816000905550600101620002d7565b5090565b6000604051905090565b600080fd5b600080fd5b600080fd5b600080fd5b6000601f19601f8301169050919050565b7f4e487b7100000000000000000000000000000000000000000000000000000000600052604160045260246000fd5b6200035e8262000313565b810181811067ffffffffffffffff8211171562000380576200037f62000324565b5b80604052505050565b600062000395620002f5565b9050620003a3828262000353565b919050565b600067ffffffffffffffff821115620003c657620003c562000324565b5b620003d18262000313565b9050602081019050919050565b60005b83811015620003fe578082015181840152602081019050620003e1565b838111156200040e576000848401525b50505050565b60006200042b6200042584620003a8565b62000389565b9050828152602081018484840111156200044a57620004496200030e565b5b62000457848285620003de565b509392505050565b600082601f83011262000477576200047662000309565b5b81516200048984826020860162000414565b91505092915050565b600060208284031215620004ab57620004aa620002ff565b5b600082015167ffffffffffffffff811115620004cc57620004cb62000304565b5b620004da848285016200045f565b91505092915050565b600081519050919050565b600082825260208201905092915050565b60006200050c82620004e3565b620005188185620004ee565b93506200052a818560208601620003de565b620005358162000313565b840191505092915050565b600060408201905081810360008301526200055c8185620004ff565b90508181036020830152620005728184620004ff565b90509392505050565b7f4e487b7100000000000000000000000000000000000000000000000000000000600052602260045260246000fd5b60006002820490506001821680620005c357607f821691505b60208210811415620005da57620005d96200057b565b5b50919050565b61574080620005f06000396000f3fe60806040526004361061019c5760003560e01c80636352211e116100ec578063b88d4fde1161008a578063c87b56dd11610064578063c87b56dd14610603578063e985e9c514610640578063fb825e5f1461067d578063fe2c6198146106a85761019c565b8063b88d4fde14610574578063bf40fac11461059d578063c1880a98146105da5761019c565b80638f32d59b116100c65780638f32d59b146104b857806395d89b41146104e35780639791c0971461050e578063a22cb4651461054b5761019c565b80636352211e1461041357806370a08231146104505780638da5cb5b1461048d5761019c565b806326449235116101595780633ffbd47f116101335780633ffbd47f1461035457806342842e0e146103705780634622ab0314610399578063541e771d146103d65761019c565b806326449235146102d55780632d551432146103125780633ccfd60b1461033d5761019c565b806301ffc9a7146101a157806306fdde03146101de578063081812fc14610209578063095ea7b31461024657806311dd88451461026f57806323b872dd146102ac575b600080fd5b3480156101ad57600080fd5b506101c860048036038101906101c3919061309c565b6106e5565b6040516101d591906130e4565b60405180910390f35b3480156101ea57600080fd5b506101f36107c7565b6040516102009190613198565b60405180910390f35b34801561021557600080fd5b50610230600480360381019061022b91906131f0565b610859565b60405161023d919061325e565b60405180910390f35b34801561025257600080fd5b5061026d600480360381019061026891906132a5565b6108de565b005b34801561027b57600080fd5b506102966004803603810190610291919061334a565b6109f6565b6040516102a39190613198565b60405180910390f35b3480156102b857600080fd5b506102d360048036038101906102ce9190613397565b610aa9565b005b3480156102e157600080fd5b506102fc60048036038101906102f7919061351a565b610b09565b604051610309919061325e565b60405180910390f35b34801561031e57600080fd5b50610327610b52565b6040516103349190613198565b60405180910390f35b34801561034957600080fd5b50610352610be0565b005b61036e60048036038101906103699190613563565b610ca6565b005b34801561037c57600080fd5b5061039760048036038101906103929190613397565b6110d8565b005b3480156103a557600080fd5b506103c060048036038101906103bb91906131f0565b6110f8565b6040516103cd9190613198565b60405180910390f35b3480156103e257600080fd5b506103fd60048036038101906103f8919061351a565b611198565b60405161040a9190613198565b60405180910390f35b34801561041f57600080fd5b5061043a600480360381019061043591906131f0565b61124e565b604051610447919061325e565b60405180910390f35b34801561045c57600080fd5b50610477600480360381019061047291906135e4565b611300565b6040516104849190613620565b60405180910390f35b34801561049957600080fd5b506104a26113b8565b6040516104af919061365c565b60405180910390f35b3480156104c457600080fd5b506104cd6113de565b6040516104da91906130e4565b60405180910390f35b3480156104ef57600080fd5b506104f8611436565b6040516105059190613198565b60405180910390f35b34801561051a57600080fd5b506105356004803603810190610530919061334a565b6114c8565b60405161054291906130e4565b60405180910390f35b34801561055757600080fd5b50610572600480360381019061056d91906136a3565b61157c565b005b34801561058057600080fd5b5061059b60048036038101906105969190613784565b611592565b005b3480156105a957600080fd5b506105c460048036038101906105bf919061334a565b6115f4565b6040516105d1919061325e565b60405180910390f35b3480156105e657600080fd5b5061060160048036038101906105fc9190613563565b61163f565b005b34801561060f57600080fd5b5061062a600480360381019061062591906131f0565b61171a565b6040516106379190613198565b60405180910390f35b34801561064c57600080fd5b5061066760048036038101906106629190613807565b61186c565b60405161067491906130e4565b60405180910390f35b34801561068957600080fd5b50610692611900565b60405161069f9190613953565b60405180910390f35b3480156106b457600080fd5b506106cf60048036038101906106ca919061334a565b611ade565b6040516106dc9190613620565b60405180910390f35b60007f80ac58cd000000000000000000000000000000000000000000000000000000007bffffffffffffffffffffffffffffffffffffffffffffffffffffffff1916827bffffffffffffffffffffffffffffffffffffffffffffffffffffffff191614806107b057507f5b5e139f000000000000000000000000000000000000000000000000000000007bffffffffffffffffffffffffffffffffffffffffffffffffffffffff1916827bffffffffffffffffffffffffffffffffffffffffffffffffffffffff1916145b806107c057506107bf82611c56565b5b9050919050565b6060600080546107d6906139a4565b80601f0160208091040260200160405190810160405280929190818152602001828054610802906139a4565b801561084f5780601f106108245761010080835404028352916020019161084f565b820191906000526020600020905b81548152906001019060200180831161083257829003601f168201915b5050505050905090565b600061086482611cc0565b6108a3576040517f08c379a000000000000000000000000000000000000000000000000000000000815260040161089a90613a48565b60405180910390fd5b6004600083815260200190815260200160002060009054906101000a900473ffffffffffffffffffffffffffffffffffffffff169050919050565b60006108e98261124e565b90508073ffffffffffffffffffffffffffffffffffffffff168373ffffffffffffffffffffffffffffffffffffffff16141561095a576040517f08c379a000000000000000000000000000000000000000000000000000000000815260040161095190613ada565b60405180910390fd5b8073ffffffffffffffffffffffffffffffffffffffff16610979611d2c565b73ffffffffffffffffffffffffffffffffffffffff1614806109a857506109a7816109a2611d2c565b61186c565b5b6109e7576040517f08c379a00000000000000000000000000000000000000000000000000000000081526004016109de90613b6c565b60405180910390fd5b6109f18383611d34565b505050565b6060600b8383604051610a0a929190613bbc565b90815260200160405180910390208054610a23906139a4565b80601f0160208091040260200160405190810160405280929190818152602001828054610a4f906139a4565b8015610a9c5780601f10610a7157610100808354040283529160200191610a9c565b820191906000526020600020905b815481529060010190602001808311610a7f57829003601f168201915b5050505050905092915050565b610aba610ab4611d2c565b82611ded565b610af9576040517f08c379a0000000000000000000000000000000000000000000000000000000008152600401610af090613c47565b60405180910390fd5b610b04838383611ecb565b505050565b600a818051602081018201805184825260208301602085012081835280955050505050506000915054906101000a900473ffffffffffffffffffffffffffffffffffffffff1681565b60098054610b5f906139a4565b80601f0160208091040260200160405190810160405280929190818152602001828054610b8b906139a4565b8015610bd85780601f10610bad57610100808354040283529160200191610bd8565b820191906000526020600020905b815481529060010190602001808311610bbb57829003601f168201915b505050505081565b610be86113de565b610bf157600080fd5b600047905060003373ffffffffffffffffffffffffffffffffffffffff1682604051610c1c90613c98565b60006040518083038185875af1925050503d8060008114610c59576040519150601f19603f3d011682016040523d82523d6000602084013e610c5e565b606091505b5050905080610ca2576040517f08c379a0000000000000000000000000000000000000000000000000000000008152600401610c9990613cf9565b60405180910390fd5b5050565b600073ffffffffffffffffffffffffffffffffffffffff16600a8585604051610cd0929190613bbc565b908152602001604051809103902060009054906101000a900473ffffffffffffffffffffffffffffffffffffffff1673ffffffffffffffffffffffffffffffffffffffff1614610d4c576040517f3a81d6fc00000000000000000000000000000000000000000000000000000000815260040160405180910390fd5b610d5684846114c8565b610d995783836040517f7f19f48d000000000000000000000000000000000000000000000000000000008152600401610d90929190613d46565b60405180910390fd5b6000610da58585611ade565b905080341015610dea576040517f08c379a0000000000000000000000000000000000000000000000000000000008152600401610de190613db6565b60405180910390fd5b600085856009604051602001610e0293929190613eb6565b6040516020818303038152906040529050600060405180610980016040528061095a8152602001614d3861095a9139826040518060400160405280600d81526020017f3c2f746578743e3c2f7376673e00000000000000000000000000000000000000815250604051602001610e7a93929190613f18565b60405160208183030381529060405290506000610e976007612132565b90506000610ee889898080601f016020809104026020016040519081016040528093929190818152602001838380828437600081840152601f19601f82011690508083019250505050505050612140565b90506000610ef5826122f5565b9050610f1a6040518060600160405280602e8152602001614cd1602e91398685612456565b6000610f53866009610f2b886124f5565b85604051602001610f3f9493929190614111565b6040516020818303038152906040526124f5565b9050600081604051602001610f6891906141d2565b6040516020818303038152906040529050610f9a604051806060016040528060398152602001614cff6039913961268d565b610fd96040518060400160405280600e81526020017f46696e616c20746f6b656e55524900000000000000000000000000000000000081525082611bba565b610ffa6040518060600160405280603981526020016156926039913961268d565b6110043386612726565b61100e8582612744565b33600a8d8d604051611021929190613bbc565b908152602001604051809103902060006101000a81548173ffffffffffffffffffffffffffffffffffffffff021916908373ffffffffffffffffffffffffffffffffffffffff1602179055508989600b8e8e604051611081929190613bbc565b9081526020016040518091039020919061109c929190612f07565b508b8b600c600088815260200190815260200160002091906110bf929190612f07565b506110ca60076127b8565b505050505050505050505050565b6110f383838360405180602001604052806000815250611592565b505050565b600c6020528060005260406000206000915090508054611117906139a4565b80601f0160208091040260200160405190810160405280929190818152602001828054611143906139a4565b80156111905780601f1061116557610100808354040283529160200191611190565b820191906000526020600020905b81548152906001019060200180831161117357829003601f168201915b505050505081565b600b8180516020810182018051848252602083016020850120818352809550505050505060009150905080546111cd906139a4565b80601f01602080910402602001604051908101604052809291908181526020018280546111f9906139a4565b80156112465780601f1061121b57610100808354040283529160200191611246565b820191906000526020600020905b81548152906001019060200180831161122957829003601f168201915b505050505081565b6000806002600084815260200190815260200160002060009054906101000a900473ffffffffffffffffffffffffffffffffffffffff169050600073ffffffffffffffffffffffffffffffffffffffff168173ffffffffffffffffffffffffffffffffffffffff1614156112f7576040517f08c379a00000000000000000000000000000000000000000000000000000000081526004016112ee90614266565b60405180910390fd5b80915050919050565b60008073ffffffffffffffffffffffffffffffffffffffff168273ffffffffffffffffffffffffffffffffffffffff161415611371576040517f08c379a0000000000000000000000000000000000000000000000000000000008152600401611368906142f8565b60405180910390fd5b600360008373ffffffffffffffffffffffffffffffffffffffff1673ffffffffffffffffffffffffffffffffffffffff168152602001908152602001600020549050919050565b600860009054906101000a900473ffffffffffffffffffffffffffffffffffffffff1681565b6000600860009054906101000a900473ffffffffffffffffffffffffffffffffffffffff1673ffffffffffffffffffffffffffffffffffffffff163373ffffffffffffffffffffffffffffffffffffffff1614905090565b606060018054611445906139a4565b80601f0160208091040260200160405190810160405280929190818152602001828054611471906139a4565b80156114be5780601f10611493576101008083540402835291602001916114be565b820191906000526020600020905b8154815290600101906020018083116114a157829003601f168201915b5050505050905090565b6000600361151984848080601f016020809104026020016040519081016040528093929190818152602001838380828437600081840152601f19601f82011690508083019250505050505050612140565b101580156115745750600a61157184848080601f016020809104026020016040519081016040528093929190818152602001838380828437600081840152601f19601f82011690508083019250505050505050612140565b11155b905092915050565b61158e611587611d2c565b83836127ce565b5050565b6115a361159d611d2c565b83611ded565b6115e2576040517f08c379a00000000000000000000000000000000000000000000000000000000081526004016115d990613c47565b60405180910390fd5b6115ee8484848461293b565b50505050565b6000600a8383604051611608929190613bbc565b908152602001604051809103902060009054906101000a900473ffffffffffffffffffffffffffffffffffffffff16905092915050565b600a8484604051611651929190613bbc565b908152602001604051809103902060009054906101000a900473ffffffffffffffffffffffffffffffffffffffff1673ffffffffffffffffffffffffffffffffffffffff163373ffffffffffffffffffffffffffffffffffffffff16146116e4576040517f82b4290000000000000000000000000000000000000000000000000000000000815260040160405180910390fd5b8181600b86866040516116f8929190613bbc565b90815260200160405180910390209190611713929190612f07565b5050505050565b606061172582611cc0565b611764576040517f08c379a000000000000000000000000000000000000000000000000000000000815260040161175b9061438a565b60405180910390fd5b6000600660008481526020019081526020016000208054611784906139a4565b80601f01602080910402602001604051908101604052809291908181526020018280546117b0906139a4565b80156117fd5780601f106117d2576101008083540402835291602001916117fd565b820191906000526020600020905b8154815290600101906020018083116117e057829003601f168201915b50505050509050600061180e612997565b9050600081511415611824578192505050611867565b6000825111156118595780826040516020016118419291906143aa565b60405160208183030381529060405292505050611867565b611862846129ae565b925050505b919050565b6000600560008473ffffffffffffffffffffffffffffffffffffffff1673ffffffffffffffffffffffffffffffffffffffff16815260200190815260200160002060008373ffffffffffffffffffffffffffffffffffffffff1673ffffffffffffffffffffffffffffffffffffffff16815260200190815260200160002060009054906101000a900460ff16905092915050565b60606119406040518060400160405280601f81526020017f47657474696e6720616c6c206e616d65732066726f6d20636f6e74726163740081525061268d565b600061194c6007612132565b67ffffffffffffffff811115611965576119646133ef565b5b60405190808252806020026020018201604052801561199857816020015b60608152602001906001900390816119835790505b50905060005b6119a86007612132565b811015611ad657600c600082815260200190815260200160002080546119cd906139a4565b80601f01602080910402602001604051908101604052809291908181526020018280546119f9906139a4565b8015611a465780601f10611a1b57610100808354040283529160200191611a46565b820191906000526020600020905b815481529060010190602001808311611a2957829003601f168201915b5050505050828281518110611a5e57611a5d6143ce565b5b6020026020010181905250611ac36040518060400160405280601781526020017f4e616d6520666f7220746f6b656e20256420697320257300000000000000000081525082848481518110611ab657611ab56143ce565b5b6020026020010151612a55565b8080611ace9061442c565b91505061199e565b508091505090565b600080611b2e84848080601f016020809104026020016040519081016040528093929190818152602001838380828437600081840152601f19601f82011690508083019250505050505050612140565b905060018111611b73576040517f08c379a0000000000000000000000000000000000000000000000000000000008152600401611b6a906144e7565b60405180910390fd5b6003811415611b8d576706f05b59d3b20000915050611bb4565b6004811415611ba757670429d069189e0000915050611bb4565b67016345785d8a00009150505b92915050565b611c528282604051602401611bd0929190614507565b6040516020818303038152906040527f4b5c4277000000000000000000000000000000000000000000000000000000007bffffffffffffffffffffffffffffffffffffffffffffffffffffffff19166020820180517bffffffffffffffffffffffffffffffffffffffffffffffffffffffff8381831617835250505050612af4565b5050565b60007f01ffc9a7000000000000000000000000000000000000000000000000000000007bffffffffffffffffffffffffffffffffffffffffffffffffffffffff1916827bffffffffffffffffffffffffffffffffffffffffffffffffffffffff1916149050919050565b60008073ffffffffffffffffffffffffffffffffffffffff166002600084815260200190815260200160002060009054906101000a900473ffffffffffffffffffffffffffffffffffffffff1673ffffffffffffffffffffffffffffffffffffffff1614159050919050565b600033905090565b816004600083815260200190815260200160002060006101000a81548173ffffffffffffffffffffffffffffffffffffffff021916908373ffffffffffffffffffffffffffffffffffffffff160217905550808273ffffffffffffffffffffffffffffffffffffffff16611da78361124e565b73ffffffffffffffffffffffffffffffffffffffff167f8c5be1e5ebec7d5bd14f71427d1e84f3dd0314c0f7b2291e5b200ac8c7c3b92560405160405180910390a45050565b6000611df882611cc0565b611e37576040517f08c379a0000000000000000000000000000000000000000000000000000000008152600401611e2e906145b0565b60405180910390fd5b6000611e428361124e565b90508073ffffffffffffffffffffffffffffffffffffffff168473ffffffffffffffffffffffffffffffffffffffff161480611eb157508373ffffffffffffffffffffffffffffffffffffffff16611e9984610859565b73ffffffffffffffffffffffffffffffffffffffff16145b80611ec25750611ec1818561186c565b5b91505092915050565b8273ffffffffffffffffffffffffffffffffffffffff16611eeb8261124e565b73ffffffffffffffffffffffffffffffffffffffff1614611f41576040517f08c379a0000000000000000000000000000000000000000000000000000000008152600401611f3890614642565b60405180910390fd5b600073ffffffffffffffffffffffffffffffffffffffff168273ffffffffffffffffffffffffffffffffffffffff161415611fb1576040517f08c379a0000000000000000000000000000000000000000000000000000000008152600401611fa8906146d4565b60405180910390fd5b611fbc838383612b1d565b611fc7600082611d34565b6001600360008573ffffffffffffffffffffffffffffffffffffffff1673ffffffffffffffffffffffffffffffffffffffff168152602001908152602001600020600082825461201791906146f4565b925050819055506001600360008473ffffffffffffffffffffffffffffffffffffffff1673ffffffffffffffffffffffffffffffffffffffff168152602001908152602001600020600082825461206e9190614728565b92505081905550816002600083815260200190815260200160002060006101000a81548173ffffffffffffffffffffffffffffffffffffffff021916908373ffffffffffffffffffffffffffffffffffffffff160217905550808273ffffffffffffffffffffffffffffffffffffffff168473ffffffffffffffffffffffffffffffffffffffff167fddf252ad1be2c89b69c2b068fc378daa952ba7f163c4a11628f55a4df523b3ef60405160405180910390a461212d838383612b22565b505050565b600081600001549050919050565b60008060008084519050600092505b808210156122ea57600085838151811061216c5761216b6143ce565b5b602001015160f81c60f81b9050608060f81b817effffffffffffffffffffffffffffffffffffffffffffffffffffffffffffff191610156121bb576001836121b49190614728565b92506122d6565b60e060f81b817effffffffffffffffffffffffffffffffffffffffffffffffffffffffffffff191610156121fd576002836121f69190614728565b92506122d5565b60f060f81b817effffffffffffffffffffffffffffffffffffffffffffffffffffffffffffff1916101561223f576003836122389190614728565b92506122d4565b60f8801b817effffffffffffffffffffffffffffffffffffffffffffffffffffffffffffff19161015612280576004836122799190614728565b92506122d3565b60fc60f81b817effffffffffffffffffffffffffffffffffffffffffffffffffffffffffffff191610156122c2576005836122bb9190614728565b92506122d2565b6006836122cf9190614728565b92505b5b5b5b5b5082806122e29061442c565b93505061214f565b829350505050919050565b6060600082141561233d576040518060400160405280600181526020017f30000000000000000000000000000000000000000000000000000000000000008152509050612451565b600082905060005b6000821461236f5780806123589061442c565b915050600a8261236891906147ad565b9150612345565b60008167ffffffffffffffff81111561238b5761238a6133ef565b5b6040519080825280601f01601f1916602001820160405280156123bd5781602001600182028036833780820191505090505b5090505b6000851461244a576001826123d691906146f4565b9150600a856123e591906147de565b60306123f19190614728565b60f81b818381518110612407576124066143ce565b5b60200101907effffffffffffffffffffffffffffffffffffffffffffffffffffffffffffff1916908160001a905350600a8561244391906147ad565b94506123c1565b8093505050505b919050565b6124f083838360405160240161246e9392919061480f565b6040516020818303038152906040527ff362ca59000000000000000000000000000000000000000000000000000000007bffffffffffffffffffffffffffffffffffffffffffffffffffffffff19166020820180517bffffffffffffffffffffffffffffffffffffffffffffffffffffffff8381831617835250505050612af4565b505050565b6060600082519050600081141561251e5760405180602001604052806000815250915050612688565b6000600360028361252f9190614728565b61253991906147ad565b60046125459190614854565b905060006020826125569190614728565b67ffffffffffffffff81111561256f5761256e6133ef565b5b6040519080825280601f01601f1916602001820160405280156125a15781602001600182028036833780820191505090505b50905060006040518060600160405280604081526020016156cb604091399050600181016020830160005b868110156126455760038101905062ffffff818a015116603f8160121c168401518060081b905060ff603f83600c1c1686015116810190508060081b905060ff603f8360061c1686015116810190508060081b905060ff603f831686015116810190508060e01b905080845260048401935050506125cc565b50600386066001811461265f576002811461266f5761267a565b613d3d60f01b600283035261267a565b603d60f81b60018303525b508484525050819450505050505b919050565b612723816040516024016126a19190613198565b6040516020818303038152906040527f41304fac000000000000000000000000000000000000000000000000000000007bffffffffffffffffffffffffffffffffffffffffffffffffffffffff19166020820180517bffffffffffffffffffffffffffffffffffffffffffffffffffffffff8381831617835250505050612af4565b50565b612740828260405180602001604052806000815250612b27565b5050565b61274d82611cc0565b61278c576040517f08c379a000000000000000000000000000000000000000000000000000000000815260040161278390614920565b60405180910390fd5b806006600084815260200190815260200160002090805190602001906127b3929190612f8d565b505050565b6001816000016000828254019250508190555050565b8173ffffffffffffffffffffffffffffffffffffffff168373ffffffffffffffffffffffffffffffffffffffff16141561283d576040517f08c379a00000000000000000000000000000000000000000000000000000000081526004016128349061498c565b60405180910390fd5b80600560008573ffffffffffffffffffffffffffffffffffffffff1673ffffffffffffffffffffffffffffffffffffffff16815260200190815260200160002060008473ffffffffffffffffffffffffffffffffffffffff1673ffffffffffffffffffffffffffffffffffffffff16815260200190815260200160002060006101000a81548160ff0219169083151502179055508173ffffffffffffffffffffffffffffffffffffffff168373ffffffffffffffffffffffffffffffffffffffff167f17307eab39ab6107e8899845ad3d59bd9653f200f220920489ca2b5937696c318360405161292e91906130e4565b60405180910390a3505050565b612946848484611ecb565b61295284848484612b82565b612991576040517f08c379a000000000000000000000000000000000000000000000000000000000815260040161298890614a1e565b60405180910390fd5b50505050565b606060405180602001604052806000815250905090565b60606129b982611cc0565b6129f8576040517f08c379a00000000000000000000000000000000000000000000000000000000081526004016129ef90614ab0565b60405180910390fd5b6000612a02612997565b90506000815111612a225760405180602001604052806000815250612a4d565b80612a2c846122f5565b604051602001612a3d9291906143aa565b6040516020818303038152906040525b915050919050565b612aef838383604051602401612a6d93929190614ad0565b6040516020818303038152906040527fa3f5c739000000000000000000000000000000000000000000000000000000007bffffffffffffffffffffffffffffffffffffffffffffffffffffffff19166020820180517bffffffffffffffffffffffffffffffffffffffffffffffffffffffff8381831617835250505050612af4565b505050565b60008151905060006a636f6e736f6c652e6c6f679050602083016000808483855afa5050505050565b505050565b505050565b612b318383612d0a565b612b3e6000848484612b82565b612b7d576040517f08c379a0000000000000000000000000000000000000000000000000000000008152600401612b7490614a1e565b60405180910390fd5b505050565b6000612ba38473ffffffffffffffffffffffffffffffffffffffff16612ee4565b15612cfd578373ffffffffffffffffffffffffffffffffffffffff1663150b7a02612bcc611d2c565b8786866040518563ffffffff1660e01b8152600401612bee9493929190614b6a565b6020604051808303816000875af1925050508015612c2a57506040513d601f19601f82011682018060405250810190612c279190614bcb565b60015b612cad573d8060008114612c5a576040519150601f19603f3d011682016040523d82523d6000602084013e612c5f565b606091505b50600081511415612ca5576040517f08c379a0000000000000000000000000000000000000000000000000000000008152600401612c9c90614a1e565b60405180910390fd5b805181602001fd5b63150b7a0260e01b7bffffffffffffffffffffffffffffffffffffffffffffffffffffffff1916817bffffffffffffffffffffffffffffffffffffffffffffffffffffffff191614915050612d02565b600190505b949350505050565b600073ffffffffffffffffffffffffffffffffffffffff168273ffffffffffffffffffffffffffffffffffffffff161415612d7a576040517f08c379a0000000000000000000000000000000000000000000000000000000008152600401612d7190614c44565b60405180910390fd5b612d8381611cc0565b15612dc3576040517f08c379a0000000000000000000000000000000000000000000000000000000008152600401612dba90614cb0565b60405180910390fd5b612dcf60008383612b1d565b6001600360008473ffffffffffffffffffffffffffffffffffffffff1673ffffffffffffffffffffffffffffffffffffffff1681526020019081526020016000206000828254612e1f9190614728565b92505081905550816002600083815260200190815260200160002060006101000a81548173ffffffffffffffffffffffffffffffffffffffff021916908373ffffffffffffffffffffffffffffffffffffffff160217905550808273ffffffffffffffffffffffffffffffffffffffff16600073ffffffffffffffffffffffffffffffffffffffff167fddf252ad1be2c89b69c2b068fc378daa952ba7f163c4a11628f55a4df523b3ef60405160405180910390a4612ee060008383612b22565b5050565b6000808273ffffffffffffffffffffffffffffffffffffffff163b119050919050565b828054612f13906139a4565b90600052602060002090601f016020900481019282612f355760008555612f7c565b82601f10612f4e57803560ff1916838001178555612f7c565b82800160010185558215612f7c579182015b82811115612f7b578235825591602001919060010190612f60565b5b509050612f899190613013565b5090565b828054612f99906139a4565b90600052602060002090601f016020900481019282612fbb5760008555613002565b82601f10612fd457805160ff1916838001178555613002565b82800160010185558215613002579182015b82811115613001578251825591602001919060010190612fe6565b5b50905061300f9190613013565b5090565b5b8082111561302c576000816000905550600101613014565b5090565b6000604051905090565b600080fd5b600080fd5b60007fffffffff0000000000000000000000000000000000000000000000000000000082169050919050565b61307981613044565b811461308457600080fd5b50565b60008135905061309681613070565b92915050565b6000602082840312156130b2576130b161303a565b5b60006130c084828501613087565b91505092915050565b60008115159050919050565b6130de816130c9565b82525050565b60006020820190506130f960008301846130d5565b92915050565b600081519050919050565b600082825260208201905092915050565b60005b8381101561313957808201518184015260208101905061311e565b83811115613148576000848401525b50505050565b6000601f19601f8301169050919050565b600061316a826130ff565b613174818561310a565b935061318481856020860161311b565b61318d8161314e565b840191505092915050565b600060208201905081810360008301526131b2818461315f565b905092915050565b6000819050919050565b6131cd816131ba565b81146131d857600080fd5b50565b6000813590506131ea816131c4565b92915050565b6000602082840312156132065761320561303a565b5b6000613214848285016131db565b91505092915050565b600073ffffffffffffffffffffffffffffffffffffffff82169050919050565b60006132488261321d565b9050919050565b6132588161323d565b82525050565b6000602082019050613273600083018461324f565b92915050565b6132828161323d565b811461328d57600080fd5b50565b60008135905061329f81613279565b92915050565b600080604083850312156132bc576132bb61303a565b5b60006132ca85828601613290565b92505060206132db858286016131db565b9150509250929050565b600080fd5b600080fd5b600080fd5b60008083601f84011261330a576133096132e5565b5b8235905067ffffffffffffffff811115613327576133266132ea565b5b602083019150836001820283011115613343576133426132ef565b5b9250929050565b600080602083850312156133615761336061303a565b5b600083013567ffffffffffffffff81111561337f5761337e61303f565b5b61338b858286016132f4565b92509250509250929050565b6000806000606084860312156133b0576133af61303a565b5b60006133be86828701613290565b93505060206133cf86828701613290565b92505060406133e0868287016131db565b9150509250925092565b600080fd5b7f4e487b7100000000000000000000000000000000000000000000000000000000600052604160045260246000fd5b6134278261314e565b810181811067ffffffffffffffff82111715613446576134456133ef565b5b80604052505050565b6000613459613030565b9050613465828261341e565b919050565b600067ffffffffffffffff821115613485576134846133ef565b5b61348e8261314e565b9050602081019050919050565b82818337600083830152505050565b60006134bd6134b88461346a565b61344f565b9050828152602081018484840111156134d9576134d86133ea565b5b6134e484828561349b565b509392505050565b600082601f830112613501576135006132e5565b5b81356135118482602086016134aa565b91505092915050565b6000602082840312156135305761352f61303a565b5b600082013567ffffffffffffffff81111561354e5761354d61303f565b5b61355a848285016134ec565b91505092915050565b6000806000806040858703121561357d5761357c61303a565b5b600085013567ffffffffffffffff81111561359b5761359a61303f565b5b6135a7878288016132f4565b9450945050602085013567ffffffffffffffff8111156135ca576135c961303f565b5b6135d6878288016132f4565b925092505092959194509250565b6000602082840312156135fa576135f961303a565b5b600061360884828501613290565b91505092915050565b61361a816131ba565b82525050565b60006020820190506136356000830184613611565b92915050565b60006136468261321d565b9050919050565b6136568161363b565b82525050565b6000602082019050613671600083018461364d565b92915050565b613680816130c9565b811461368b57600080fd5b50565b60008135905061369d81613677565b92915050565b600080604083850312156136ba576136b961303a565b5b60006136c885828601613290565b92505060206136d98582860161368e565b9150509250929050565b600067ffffffffffffffff8211156136fe576136fd6133ef565b5b6137078261314e565b9050602081019050919050565b6000613727613722846136e3565b61344f565b905082815260208101848484011115613743576137426133ea565b5b61374e84828561349b565b509392505050565b600082601f83011261376b5761376a6132e5565b5b813561377b848260208601613714565b91505092915050565b6000806000806080858703121561379e5761379d61303a565b5b60006137ac87828801613290565b94505060206137bd87828801613290565b93505060406137ce878288016131db565b925050606085013567ffffffffffffffff8111156137ef576137ee61303f565b5b6137fb87828801613756565b91505092959194509250565b6000806040838503121561381e5761381d61303a565b5b600061382c85828601613290565b925050602061383d85828601613290565b9150509250929050565b600081519050919050565b600082825260208201905092915050565b6000819050602082019050919050565b600082825260208201905092915050565b600061388f826130ff565b6138998185613873565b93506138a981856020860161311b565b6138b28161314e565b840191505092915050565b60006138c98383613884565b905092915050565b6000602082019050919050565b60006138e982613847565b6138f38185613852565b93508360208202850161390585613863565b8060005b85811015613941578484038952815161392285826138bd565b945061392d836138d1565b925060208a01995050600181019050613909565b50829750879550505050505092915050565b6000602082019050818103600083015261396d81846138de565b905092915050565b7f4e487b7100000000000000000000000000000000000000000000000000000000600052602260045260246000fd5b600060028204905060018216806139bc57607f821691505b602082108114156139d0576139cf613975565b5b50919050565b7f4552433732313a20617070726f76656420717565727920666f72206e6f6e657860008201527f697374656e7420746f6b656e0000000000000000000000000000000000000000602082015250565b6000613a32602c8361310a565b9150613a3d826139d6565b604082019050919050565b60006020820190508181036000830152613a6181613a25565b9050919050565b7f4552433732313a20617070726f76616c20746f2063757272656e74206f776e6560008201527f7200000000000000000000000000000000000000000000000000000000000000602082015250565b6000613ac460218361310a565b9150613acf82613a68565b604082019050919050565b60006020820190508181036000830152613af381613ab7565b9050919050565b7f4552433732313a20617070726f76652063616c6c6572206973206e6f74206f7760008201527f6e6572206e6f7220617070726f76656420666f7220616c6c0000000000000000602082015250565b6000613b5660388361310a565b9150613b6182613afa565b604082019050919050565b60006020820190508181036000830152613b8581613b49565b9050919050565b600081905092915050565b6000613ba38385613b8c565b9350613bb083858461349b565b82840190509392505050565b6000613bc9828486613b97565b91508190509392505050565b7f4552433732313a207472616e736665722063616c6c6572206973206e6f74206f60008201527f776e6572206e6f7220617070726f766564000000000000000000000000000000602082015250565b6000613c3160318361310a565b9150613c3c82613bd5565b604082019050919050565b60006020820190508181036000830152613c6081613c24565b9050919050565b600081905092915050565b50565b6000613c82600083613c67565b9150613c8d82613c72565b600082019050919050565b6000613ca382613c75565b9150819050919050565b7f4661696c656420746f207769746864726177204d617469630000000000000000600082015250565b6000613ce360188361310a565b9150613cee82613cad565b602082019050919050565b60006020820190508181036000830152613d1281613cd6565b9050919050565b6000613d25838561310a565b9350613d3283858461349b565b613d3b8361314e565b840190509392505050565b60006020820190508181036000830152613d61818486613d19565b90509392505050565b7f4e6f7420656e6f756768204d6174696320706169642100000000000000000000600082015250565b6000613da060168361310a565b9150613dab82613d6a565b602082019050919050565b60006020820190508181036000830152613dcf81613d93565b9050919050565b7f2e00000000000000000000000000000000000000000000000000000000000000600082015250565b6000613e0c600183613b8c565b9150613e1782613dd6565b600182019050919050565b60008190508160005260206000209050919050565b60008154613e44816139a4565b613e4e8186613b8c565b94506001821660008114613e695760018114613e7a57613ead565b60ff19831686528186019350613ead565b613e8385613e22565b60005b83811015613ea557815481890152600182019150602081019050613e86565b838801955050505b50505092915050565b6000613ec3828587613b97565b9150613ece82613dff565b9150613eda8284613e37565b9150819050949350505050565b6000613ef2826130ff565b613efc8185613b8c565b9350613f0c81856020860161311b565b80840191505092915050565b6000613f248286613ee7565b9150613f308285613ee7565b9150613f3c8284613ee7565b9150819050949350505050565b7f7b226e616d65223a202200000000000000000000000000000000000000000000600082015250565b6000613f7f600a83613b8c565b9150613f8a82613f49565b600a82019050919050565b7f222c20226465736372697074696f6e223a20224120646f6d61696e206f6e207460008201527f6865202e00000000000000000000000000000000000000000000000000000000602082015250565b6000613ff1602483613b8c565b9150613ffc82613f95565b602482019050919050565b7f206e616d652073657276696365222c2022696d616765223a2022646174613a6960008201527f6d6167652f7376672b786d6c3b6261736536342c000000000000000000000000602082015250565b6000614063603483613b8c565b915061406e82614007565b603482019050919050565b7f222c226c656e677468223a220000000000000000000000000000000000000000600082015250565b60006140af600c83613b8c565b91506140ba82614079565b600c82019050919050565b7f227d000000000000000000000000000000000000000000000000000000000000600082015250565b60006140fb600283613b8c565b9150614106826140c5565b600282019050919050565b600061411c82613f72565b91506141288287613ee7565b915061413382613fe4565b915061413f8286613e37565b915061414a82614056565b91506141568285613ee7565b9150614161826140a2565b915061416d8284613ee7565b9150614178826140ee565b915081905095945050505050565b7f646174613a6170706c69636174696f6e2f6a736f6e3b6261736536342c000000600082015250565b60006141bc601d83613b8c565b91506141c782614186565b601d82019050919050565b60006141dd826141af565b91506141e98284613ee7565b915081905092915050565b7f4552433732313a206f776e657220717565727920666f72206e6f6e657869737460008201527f656e7420746f6b656e0000000000000000000000000000000000000000000000602082015250565b600061425060298361310a565b915061425b826141f4565b604082019050919050565b6000602082019050818103600083015261427f81614243565b9050919050565b7f4552433732313a2062616c616e636520717565727920666f7220746865207a6560008201527f726f206164647265737300000000000000000000000000000000000000000000602082015250565b60006142e2602a8361310a565b91506142ed82614286565b604082019050919050565b60006020820190508181036000830152614311816142d5565b9050919050565b7f45524337323155524953746f726167653a2055524920717565727920666f722060008201527f6e6f6e6578697374656e7420746f6b656e000000000000000000000000000000602082015250565b600061437460318361310a565b915061437f82614318565b604082019050919050565b600060208201905081810360008301526143a381614367565b9050919050565b60006143b68285613ee7565b91506143c28284613ee7565b91508190509392505050565b7f4e487b7100000000000000000000000000000000000000000000000000000000600052603260045260246000fd5b7f4e487b7100000000000000000000000000000000000000000000000000000000600052601160045260246000fd5b6000614437826131ba565b91507fffffffffffffffffffffffffffffffffffffffffffffffffffffffffffffffff82141561446a576144696143fd565b5b600182019050919050565b7f446f6d61696e206c656e677468206d757374206265206772656174657220746860008201527f616e203021000000000000000000000000000000000000000000000000000000602082015250565b60006144d160258361310a565b91506144dc82614475565b604082019050919050565b60006020820190508181036000830152614500816144c4565b9050919050565b60006040820190508181036000830152614521818561315f565b90508181036020830152614535818461315f565b90509392505050565b7f4552433732313a206f70657261746f7220717565727920666f72206e6f6e657860008201527f697374656e7420746f6b656e0000000000000000000000000000000000000000602082015250565b600061459a602c8361310a565b91506145a58261453e565b604082019050919050565b600060208201905081810360008301526145c98161458d565b9050919050565b7f4552433732313a207472616e736665722066726f6d20696e636f72726563742060008201527f6f776e6572000000000000000000000000000000000000000000000000000000602082015250565b600061462c60258361310a565b9150614637826145d0565b604082019050919050565b6000602082019050818103600083015261465b8161461f565b9050919050565b7f4552433732313a207472616e7366657220746f20746865207a65726f2061646460008201527f7265737300000000000000000000000000000000000000000000000000000000602082015250565b60006146be60248361310a565b91506146c982614662565b604082019050919050565b600060208201905081810360008301526146ed816146b1565b9050919050565b60006146ff826131ba565b915061470a836131ba565b92508282101561471d5761471c6143fd565b5b828203905092915050565b6000614733826131ba565b915061473e836131ba565b9250827fffffffffffffffffffffffffffffffffffffffffffffffffffffffffffffffff03821115614773576147726143fd565b5b828201905092915050565b7f4e487b7100000000000000000000000000000000000000000000000000000000600052601260045260246000fd5b60006147b8826131ba565b91506147c3836131ba565b9250826147d3576147d261477e565b5b828204905092915050565b60006147e9826131ba565b91506147f4836131ba565b9250826148045761480361477e565b5b828206905092915050565b60006060820190508181036000830152614829818661315f565b9050818103602083015261483d818561315f565b905061484c6040830184613611565b949350505050565b600061485f826131ba565b915061486a836131ba565b9250817fffffffffffffffffffffffffffffffffffffffffffffffffffffffffffffffff04831182151516156148a3576148a26143fd565b5b828202905092915050565b7f45524337323155524953746f726167653a2055524920736574206f66206e6f6e60008201527f6578697374656e7420746f6b656e000000000000000000000000000000000000602082015250565b600061490a602e8361310a565b9150614915826148ae565b604082019050919050565b60006020820190508181036000830152614939816148fd565b9050919050565b7f4552433732313a20617070726f766520746f2063616c6c657200000000000000600082015250565b600061497660198361310a565b915061498182614940565b602082019050919050565b600060208201905081810360008301526149a581614969565b9050919050565b7f4552433732313a207472616e7366657220746f206e6f6e20455243373231526560008201527f63656976657220696d706c656d656e7465720000000000000000000000000000602082015250565b6000614a0860328361310a565b9150614a13826149ac565b604082019050919050565b60006020820190508181036000830152614a37816149fb565b9050919050565b7f4552433732314d657461646174613a2055524920717565727920666f72206e6f60008201527f6e6578697374656e7420746f6b656e0000000000000000000000000000000000602082015250565b6000614a9a602f8361310a565b9150614aa582614a3e565b604082019050919050565b60006020820190508181036000830152614ac981614a8d565b9050919050565b60006060820190508181036000830152614aea818661315f565b9050614af96020830185613611565b8181036040830152614b0b818461315f565b9050949350505050565b600081519050919050565b600082825260208201905092915050565b6000614b3c82614b15565b614b468185614b20565b9350614b5681856020860161311b565b614b5f8161314e565b840191505092915050565b6000608082019050614b7f600083018761324f565b614b8c602083018661324f565b614b996040830185613611565b8181036060830152614bab8184614b31565b905095945050505050565b600081519050614bc581613070565b92915050565b600060208284031215614be157614be061303a565b5b6000614bef84828501614bb6565b91505092915050565b7f4552433732313a206d696e7420746f20746865207a65726f2061646472657373600082015250565b6000614c2e60208361310a565b9150614c3982614bf8565b602082019050919050565b60006020820190508181036000830152614c5d81614c21565b9050919050565b7f4552433732313a20746f6b656e20616c7265616479206d696e74656400000000600082015250565b6000614c9a601c8361310a565b9150614ca582614c64565b602082019050919050565b60006020820190508181036000830152614cc981614c8d565b905091905056fe5265676973746572696e67202573206f6e2074686520636f6e7472616374207769746820746f6b656e49642025640a2d2d2d2d2d2d2d2d2d2d2d2d2d2d2d2d2d2d2d2d2d2d2d2d2d2d2d2d2d2d2d2d2d2d2d2d2d2d2d2d2d2d2d2d2d2d2d2d2d2d2d2d2d2d2d2d3c73766720786d6c6e733d22687474703a2f2f7777772e77332e6f72672f323030302f737667222076696577426f783d223020302038303020383030222077696474683d2238303022206865696768743d2238303022207374796c653d226261636b67726f756e642d636f6c6f723a23333039316666223e3c646566733e3c7061747465726e2069643d2261222077696474683d22343022206865696768743d22343022207061747465726e556e6974733d227573657253706163654f6e55736522207061747465726e5472616e73666f726d3d22726f7461746528333529207363616c65283329223e3c7061746820643d224d372e39332032352e343836762d366c382e383320352e3176366c2d382e38332d352e315a222066696c6c3d2223666662303566222f3e3c7061746820643d224d31362e37362033302e353837762d366c31322e30382d312e38362e30303320362d31322e30383320312e38365a222066696c6c3d2223633535303030222f3e3c7061746820643d224d33322e30372032312e373437762d366c2d332e323320362e393876366c332e32332d362e39385a222066696c6c3d2223666662303566222f3e3c7061746820643d226d31312e3136312031322e3531362031322e3037342d312e38363720382e38333920352e3130322d332e32333520362e39372d31322e30373420312e3836382d382e38342d352e31303220332e3233362d362e39375a222066696c6c3d2223666637663330222f3e3c2f7061747465726e3e3c66696c7465722069643d22622220636f6c6f722d696e746572706f6c6174696f6e2d66696c746572733d2273524742222066696c746572556e6974733d227573657253706163654f6e55736522206865696768743d22383030222077696474683d22383030223e3c666544726f70536861646f772064783d2232222064793d22332220737464446576696174696f6e3d2231302220666c6f6f642d6f7061636974793d22323235222077696474683d223230302522206865696768743d2232303025222f3e3c2f66696c7465723e3c2f646566733e3c706174682066696c6c3d2275726c28236129222066696c7465723d2275726c282362292220643d224d302030683830307638303048307a22207472616e73666f726d3d227363616c6528312e3529222f3e3c706174682066696c7465723d2275726c282362292220643d224d3231382e353839203132382e3834376131332e3134372031332e3134372030203020302d31332e31383220306c2d33302e3234332031382e3039362d32302e35352031312e3830322d33302e3234332031382e3039366131332e3134372031332e3134372030203020312d31332e31383220304c38372e3135203136322e3637386131332e35362031332e35362030203020312d342e3736372d342e3834382031332e3632332031332e3632332030203020312d312e3832342d362e353631762d32372e39336131322e3831332031322e38313320302030203120312e3731362d362e3632342031322e37352031322e373520302030203120342e3837352d342e3738356c32332e3635322d31332e37376131332e3134372031332e3134372030203020312031332e31383220306c32332e3635322031332e37376131332e35362031332e353620302030203120342e37363720342e3834382031332e3632332031332e36323320302030203120312e38323420362e3536317631382e3039366c32302e35352d31322e313935762d31382e3039366131322e3831332031322e3831332030203020302d312e3731362d362e3632342031322e37352031322e37352030203020302d342e3837352d342e3738354c3132342e3336382037332e37376131332e3134372031332e3134372030203020302d31332e31383220304c36362e3539342039392e3733356131322e37352031322e37352030203020302d342e38373520342e3738352031322e38322031322e38322030203020302d312e37313620362e3632347635322e3332336131322e3831332031322e38313320302030203020312e37313620362e3632342031322e37352031322e373520302030203020342e38373520342e3738356c34342e3539322032352e3936356131332e3134372031332e3134372030203020302031332e31383220306c33302e3234332d31372e3730332032302e35352d31322e3139352033302e3234332d31372e3730336131332e3134372031332e3134372030203020312031332e31383220306c32332e3635322031332e37376131332e35362031332e353620302030203120342e37363720342e3834382031332e3632332031332e36323320302030203120312e38323420362e3536317632372e3933336131322e3831332031322e3831332030203020312d312e37313620362e3632342031322e37352031322e37352030203020312d342e38373520342e3738356c2d32332e3635322031342e3136336131332e3134372031332e3134372030203020312d31332e31383220306c2d32332e3635322d31332e37376131332e35362031332e35362030203020312d342e3736372d342e3834382031332e35392031332e35392030203020312d312e3832342d362e353631762d31382e3039366c2d32302e35352031322e3139357631382e3039366131322e3831332031322e38313320302030203020312e37313620362e3632342031322e37352031322e373520302030203020342e38373520342e3738356c34342e3539322032352e3936356131332e3134372031332e3134372030203020302031332e31383220306c34342e3539322d32352e39363563312e3937312d312e31383220332e3631322d322e383520342e3736372d342e38343873312e3738322d342e32353420312e3832372d362e353631762d35322e3332366131322e3831332031322e3831332030203020302d312e3731362d362e3632342031322e37352031322e37352030203020302d342e3837352d342e3738356c2d34342e3937392d32362e3335387a222066696c6c3d2223666666222f3e3c7465787420783d2239362220793d223638352220666f6e742d73697a653d223830222066696c6c3d2223666666222066696c7465723d2275726c282362292220666f6e742d66616d696c793d22506c7573204a616b617274612053616e732c44656a6156752053616e732c4e6f746f20436f6c6f7220456d6f6a692c4170706c6520436f6c6f7220456d6f6a692c73616e732d73657269662220666f6e742d7765696768743d22626f6c64223e2d2d2d2d2d2d2d2d2d2d2d2d2d2d2d2d2d2d2d2d2d2d2d2d2d2d2d2d2d2d2d2d2d2d2d2d2d2d2d2d2d2d2d2d2d2d2d2d2d2d2d2d2d2d2d2d0a4142434445464748494a4b4c4d4e4f505152535455565758595a6162636465666768696a6b6c6d6e6f707172737475767778797a303132333435363738392b2fa2646970667358221220aec5c289d2bf59ee68eb4e7081412e986b5eb590bfd8de44b10010f6b7014a4364736f6c634300080a0033",
  "linkReferences": {},
  "deployedLinkReferences": {}
}