{
  "_format": "hh-sol-artifact-1",
  "contractName": "Domains",
  "sourceName": "contracts/Domains.sol",
  "abi": [
    {
      "inputs": [
        {
          "internalType": "string",
          "name": "_tld",
          "type": "string"
        }
      ],
      "stateMutability": "payable",
      "type": "constructor"
    },
    {
      "anonymous": false,
      "inputs": [
        {
          "indexed": true,
          "internalType": "address",
          "name": "owner",
          "type": "address"
        },
        {
          "indexed": true,
          "internalType": "address",
          "name": "approved",
          "type": "address"
        },
        {
          "indexed": true,
          "internalType": "uint256",
          "name": "tokenId",
          "type": "uint256"
        }
      ],
      "name": "Approval",
      "type": "event"
    },
    {
      "anonymous": false,
      "inputs": [
        {
          "indexed": true,
          "internalType": "address",
          "name": "owner",
          "type": "address"
        },
        {
          "indexed": true,
          "internalType": "address",
          "name": "operator",
          "type": "address"
        },
        {
          "indexed": false,
          "internalType": "bool",
          "name": "approved",
          "type": "bool"
        }
      ],
      "name": "ApprovalForAll",
      "type": "event"
    },
    {
      "anonymous": false,
      "inputs": [
        {
          "indexed": true,
          "internalType": "address",
          "name": "from",
          "type": "address"
        },
        {
          "indexed": true,
          "internalType": "address",
          "name": "to",
          "type": "address"
        },
        {
          "indexed": true,
          "internalType": "uint256",
          "name": "tokenId",
          "type": "uint256"
        }
      ],
      "name": "Transfer",
      "type": "event"
    },
    {
      "inputs": [
        {
          "internalType": "address",
          "name": "to",
          "type": "address"
        },
        {
          "internalType": "uint256",
          "name": "tokenId",
          "type": "uint256"
        }
      ],
      "name": "approve",
      "outputs": [],
      "stateMutability": "nonpayable",
      "type": "function"
    },
    {
      "inputs": [
        {
          "internalType": "address",
          "name": "owner",
          "type": "address"
        }
      ],
      "name": "balanceOf",
      "outputs": [
        {
          "internalType": "uint256",
          "name": "",
          "type": "uint256"
        }
      ],
      "stateMutability": "view",
      "type": "function"
    },
    {
      "inputs": [
        {
          "internalType": "string",
          "name": "",
          "type": "string"
        }
      ],
      "name": "domains",
      "outputs": [
        {
          "internalType": "address",
          "name": "",
          "type": "address"
        }
      ],
      "stateMutability": "view",
      "type": "function"
    },
    {
      "inputs": [
        {
          "internalType": "string",
          "name": "name",
          "type": "string"
        }
      ],
      "name": "getAddress",
      "outputs": [
        {
          "internalType": "address",
          "name": "",
          "type": "address"
        }
      ],
      "stateMutability": "view",
      "type": "function"
    },
    {
      "inputs": [
        {
          "internalType": "uint256",
          "name": "tokenId",
          "type": "uint256"
        }
      ],
      "name": "getApproved",
      "outputs": [
        {
          "internalType": "address",
          "name": "",
          "type": "address"
        }
      ],
      "stateMutability": "view",
      "type": "function"
    },
    {
      "inputs": [
        {
          "internalType": "string",
          "name": "name",
          "type": "string"
        }
      ],
      "name": "getRecord",
      "outputs": [
        {
          "internalType": "string",
          "name": "",
          "type": "string"
        }
      ],
      "stateMutability": "view",
      "type": "function"
    },
    {
      "inputs": [
        {
          "internalType": "address",
          "name": "owner",
          "type": "address"
        },
        {
          "internalType": "address",
          "name": "operator",
          "type": "address"
        }
      ],
      "name": "isApprovedForAll",
      "outputs": [
        {
          "internalType": "bool",
          "name": "",
          "type": "bool"
        }
      ],
      "stateMutability": "view",
      "type": "function"
    },
    {
      "inputs": [],
      "name": "name",
      "outputs": [
        {
          "internalType": "string",
          "name": "",
          "type": "string"
        }
      ],
      "stateMutability": "view",
      "type": "function"
    },
    {
      "inputs": [
        {
          "internalType": "uint256",
          "name": "tokenId",
          "type": "uint256"
        }
      ],
      "name": "ownerOf",
      "outputs": [
        {
          "internalType": "address",
          "name": "",
          "type": "address"
        }
      ],
      "stateMutability": "view",
      "type": "function"
    },
    {
      "inputs": [
        {
          "internalType": "string",
          "name": "name",
          "type": "string"
        }
      ],
      "name": "price",
      "outputs": [
        {
          "internalType": "uint256",
          "name": "",
          "type": "uint256"
        }
      ],
      "stateMutability": "pure",
      "type": "function"
    },
    {
      "inputs": [
        {
          "internalType": "string",
          "name": "",
          "type": "string"
        }
      ],
      "name": "records",
      "outputs": [
        {
          "internalType": "string",
          "name": "",
          "type": "string"
        }
      ],
      "stateMutability": "view",
      "type": "function"
    },
    {
      "inputs": [
        {
          "internalType": "string",
          "name": "name",
          "type": "string"
        }
      ],
      "name": "register",
      "outputs": [],
      "stateMutability": "payable",
      "type": "function"
    },
    {
      "inputs": [
        {
          "internalType": "address",
          "name": "from",
          "type": "address"
        },
        {
          "internalType": "address",
          "name": "to",
          "type": "address"
        },
        {
          "internalType": "uint256",
          "name": "tokenId",
          "type": "uint256"
        }
      ],
      "name": "safeTransferFrom",
      "outputs": [],
      "stateMutability": "nonpayable",
      "type": "function"
    },
    {
      "inputs": [
        {
          "internalType": "address",
          "name": "from",
          "type": "address"
        },
        {
          "internalType": "address",
          "name": "to",
          "type": "address"
        },
        {
          "internalType": "uint256",
          "name": "tokenId",
          "type": "uint256"
        },
        {
          "internalType": "bytes",
          "name": "_data",
          "type": "bytes"
        }
      ],
      "name": "safeTransferFrom",
      "outputs": [],
      "stateMutability": "nonpayable",
      "type": "function"
    },
    {
      "inputs": [
        {
          "internalType": "address",
          "name": "operator",
          "type": "address"
        },
        {
          "internalType": "bool",
          "name": "approved",
          "type": "bool"
        }
      ],
      "name": "setApprovalForAll",
      "outputs": [],
      "stateMutability": "nonpayable",
      "type": "function"
    },
    {
      "inputs": [
        {
          "internalType": "string",
          "name": "name",
          "type": "string"
        },
        {
          "internalType": "string",
          "name": "record",
          "type": "string"
        }
      ],
      "name": "setRecord",
      "outputs": [],
      "stateMutability": "nonpayable",
      "type": "function"
    },
    {
      "inputs": [
        {
          "internalType": "bytes4",
          "name": "interfaceId",
          "type": "bytes4"
        }
      ],
      "name": "supportsInterface",
      "outputs": [
        {
          "internalType": "bool",
          "name": "",
          "type": "bool"
        }
      ],
      "stateMutability": "view",
      "type": "function"
    },
    {
      "inputs": [],
      "name": "symbol",
      "outputs": [
        {
          "internalType": "string",
          "name": "",
          "type": "string"
        }
      ],
      "stateMutability": "view",
      "type": "function"
    },
    {
      "inputs": [],
      "name": "tld",
      "outputs": [
        {
          "internalType": "string",
          "name": "",
          "type": "string"
        }
      ],
      "stateMutability": "view",
      "type": "function"
    },
    {
      "inputs": [
        {
          "internalType": "uint256",
          "name": "tokenId",
          "type": "uint256"
        }
      ],
      "name": "tokenURI",
      "outputs": [
        {
          "internalType": "string",
          "name": "",
          "type": "string"
        }
      ],
      "stateMutability": "view",
      "type": "function"
    },
    {
      "inputs": [
        {
          "internalType": "address",
          "name": "from",
          "type": "address"
        },
        {
          "internalType": "address",
          "name": "to",
          "type": "address"
        },
        {
          "internalType": "uint256",
          "name": "tokenId",
          "type": "uint256"
        }
      ],
      "name": "transferFrom",
      "outputs": [],
      "stateMutability": "nonpayable",
      "type": "function"
    }
  ],
  "bytecode": "0x60806040526040516200536f3803806200536f833981810160405281019062000029919062000451565b6040518060400160405280601581526020017f4661766f72697465204e616d65205365727669636500000000000000000000008152506040518060400160405280600381526020017f46415600000000000000000000000000000000000000000000000000000000008152508160009080519060200190620000ad92919062000204565b508060019080519060200190620000c692919062000204565b5050508060089080519060200190620000e192919062000204565b506200012e6040518060400160405280601981526020017f2573206e616d652073657276696365206465706c6f7965642100000000000000815250826200013560201b620014f91760201c565b506200059f565b620001d782826040516024016200014e929190620004ff565b6040516020818303038152906040527f4b5c4277000000000000000000000000000000000000000000000000000000007bffffffffffffffffffffffffffffffffffffffffffffffffffffffff19166020820180517bffffffffffffffffffffffffffffffffffffffffffffffffffffffff8381831617835250505050620001db60201b60201c565b5050565b60008151905060006a636f6e736f6c652e6c6f679050602083016000808483855afa5050505050565b828054620002129062000569565b90600052602060002090601f01602090048101928262000236576000855562000282565b82601f106200025157805160ff191683800117855562000282565b8280016001018555821562000282579182015b828111156200028157825182559160200191906001019062000264565b5b50905062000291919062000295565b5090565b5b80821115620002b057600081600090555060010162000296565b5090565b6000604051905090565b600080fd5b600080fd5b600080fd5b600080fd5b6000601f19601f8301169050919050565b7f4e487b7100000000000000000000000000000000000000000000000000000000600052604160045260246000fd5b6200031d82620002d2565b810181811067ffffffffffffffff821117156200033f576200033e620002e3565b5b80604052505050565b600062000354620002b4565b905062000362828262000312565b919050565b600067ffffffffffffffff821115620003855762000384620002e3565b5b6200039082620002d2565b9050602081019050919050565b60005b83811015620003bd578082015181840152602081019050620003a0565b83811115620003cd576000848401525b50505050565b6000620003ea620003e48462000367565b62000348565b905082815260208101848484011115620004095762000408620002cd565b5b620004168482856200039d565b509392505050565b600082601f830112620004365762000435620002c8565b5b815162000448848260208601620003d3565b91505092915050565b6000602082840312156200046a5762000469620002be565b5b600082015167ffffffffffffffff8111156200048b576200048a620002c3565b5b62000499848285016200041e565b91505092915050565b600081519050919050565b600082825260208201905092915050565b6000620004cb82620004a2565b620004d78185620004ad565b9350620004e98185602086016200039d565b620004f481620002d2565b840191505092915050565b600060408201905081810360008301526200051b8185620004be565b90508181036020830152620005318184620004be565b90509392505050565b7f4e487b7100000000000000000000000000000000000000000000000000000000600052602260045260246000fd5b600060028204905060018216806200058257607f821691505b602082108114156200059957620005986200053a565b5b50919050565b614dc080620005af6000396000f3fe60806040526004361061012a5760003560e01c80636352211e116100ab578063bf40fac11161006f578063bf40fac114610428578063c1880a9814610465578063c87b56dd1461048e578063e985e9c5146104cb578063f2c298be14610508578063fe2c6198146105245761012a565b80636352211e1461033157806370a082311461036e57806395d89b41146103ab578063a22cb465146103d6578063b88d4fde146103ff5761012a565b806323b872dd116100f257806323b872dd1461023a57806326449235146102635780632d551432146102a057806342842e0e146102cb578063541e771d146102f45761012a565b806301ffc9a71461012f57806306fdde031461016c578063081812fc14610197578063095ea7b3146101d457806311dd8845146101fd575b600080fd5b34801561013b57600080fd5b506101566004803603810190610151919061293c565b610561565b6040516101639190612984565b60405180910390f35b34801561017857600080fd5b50610181610643565b60405161018e9190612a38565b60405180910390f35b3480156101a357600080fd5b506101be60048036038101906101b99190612a90565b6106d5565b6040516101cb9190612afe565b60405180910390f35b3480156101e057600080fd5b506101fb60048036038101906101f69190612b45565b61075a565b005b34801561020957600080fd5b50610224600480360381019061021f9190612bea565b610872565b6040516102319190612a38565b60405180910390f35b34801561024657600080fd5b50610261600480360381019061025c9190612c37565b610925565b005b34801561026f57600080fd5b5061028a60048036038101906102859190612dba565b610985565b6040516102979190612afe565b60405180910390f35b3480156102ac57600080fd5b506102b56109ce565b6040516102c29190612a38565b60405180910390f35b3480156102d757600080fd5b506102f260048036038101906102ed9190612c37565b610a5c565b005b34801561030057600080fd5b5061031b60048036038101906103169190612dba565b610a7c565b6040516103289190612a38565b60405180910390f35b34801561033d57600080fd5b5061035860048036038101906103539190612a90565b610b32565b6040516103659190612afe565b60405180910390f35b34801561037a57600080fd5b5061039560048036038101906103909190612e03565b610be4565b6040516103a29190612e3f565b60405180910390f35b3480156103b757600080fd5b506103c0610c9c565b6040516103cd9190612a38565b60405180910390f35b3480156103e257600080fd5b506103fd60048036038101906103f89190612e86565b610d2e565b005b34801561040b57600080fd5b5061042660048036038101906104219190612f67565b610d44565b005b34801561043457600080fd5b5061044f600480360381019061044a9190612bea565b610da6565b60405161045c9190612afe565b60405180910390f35b34801561047157600080fd5b5061048c60048036038101906104879190612fea565b610df1565b005b34801561049a57600080fd5b506104b560048036038101906104b09190612a90565b610ed5565b6040516104c29190612a38565b60405180910390f35b3480156104d757600080fd5b506104f260048036038101906104ed919061306b565b611027565b6040516104ff9190612984565b60405180910390f35b610522600480360381019061051d9190612bea565b6110bb565b005b34801561053057600080fd5b5061054b60048036038101906105469190612bea565b61141e565b6040516105589190612e3f565b60405180910390f35b60007f80ac58cd000000000000000000000000000000000000000000000000000000007bffffffffffffffffffffffffffffffffffffffffffffffffffffffff1916827bffffffffffffffffffffffffffffffffffffffffffffffffffffffff1916148061062c57507f5b5e139f000000000000000000000000000000000000000000000000000000007bffffffffffffffffffffffffffffffffffffffffffffffffffffffff1916827bffffffffffffffffffffffffffffffffffffffffffffffffffffffff1916145b8061063c575061063b82611595565b5b9050919050565b606060008054610652906130da565b80601f016020809104026020016040519081016040528092919081815260200182805461067e906130da565b80156106cb5780601f106106a0576101008083540402835291602001916106cb565b820191906000526020600020905b8154815290600101906020018083116106ae57829003601f168201915b5050505050905090565b60006106e0826115ff565b61071f576040517f08c379a00000000000000000000000000000000000000000000000000000000081526004016107169061317e565b60405180910390fd5b6004600083815260200190815260200160002060009054906101000a900473ffffffffffffffffffffffffffffffffffffffff169050919050565b600061076582610b32565b90508073ffffffffffffffffffffffffffffffffffffffff168373ffffffffffffffffffffffffffffffffffffffff1614156107d6576040517f08c379a00000000000000000000000000000000000000000000000000000000081526004016107cd90613210565b60405180910390fd5b8073ffffffffffffffffffffffffffffffffffffffff166107f561166b565b73ffffffffffffffffffffffffffffffffffffffff16148061082457506108238161081e61166b565b611027565b5b610863576040517f08c379a000000000000000000000000000000000000000000000000000000000815260040161085a906132a2565b60405180910390fd5b61086d8383611673565b505050565b6060600a83836040516108869291906132f2565b9081526020016040518091039020805461089f906130da565b80601f01602080910402602001604051908101604052809291908181526020018280546108cb906130da565b80156109185780601f106108ed57610100808354040283529160200191610918565b820191906000526020600020905b8154815290600101906020018083116108fb57829003601f168201915b5050505050905092915050565b61093661093061166b565b8261172c565b610975576040517f08c379a000000000000000000000000000000000000000000000000000000000815260040161096c9061337d565b60405180910390fd5b61098083838361180a565b505050565b6009818051602081018201805184825260208301602085012081835280955050505050506000915054906101000a900473ffffffffffffffffffffffffffffffffffffffff1681565b600880546109db906130da565b80601f0160208091040260200160405190810160405280929190818152602001828054610a07906130da565b8015610a545780601f10610a2957610100808354040283529160200191610a54565b820191906000526020600020905b815481529060010190602001808311610a3757829003601f168201915b505050505081565b610a7783838360405180602001604052806000815250610d44565b505050565b600a818051602081018201805184825260208301602085012081835280955050505050506000915090508054610ab1906130da565b80601f0160208091040260200160405190810160405280929190818152602001828054610add906130da565b8015610b2a5780601f10610aff57610100808354040283529160200191610b2a565b820191906000526020600020905b815481529060010190602001808311610b0d57829003601f168201915b505050505081565b6000806002600084815260200190815260200160002060009054906101000a900473ffffffffffffffffffffffffffffffffffffffff169050600073ffffffffffffffffffffffffffffffffffffffff168173ffffffffffffffffffffffffffffffffffffffff161415610bdb576040517f08c379a0000000000000000000000000000000000000000000000000000000008152600401610bd29061340f565b60405180910390fd5b80915050919050565b60008073ffffffffffffffffffffffffffffffffffffffff168273ffffffffffffffffffffffffffffffffffffffff161415610c55576040517f08c379a0000000000000000000000000000000000000000000000000000000008152600401610c4c906134a1565b60405180910390fd5b600360008373ffffffffffffffffffffffffffffffffffffffff1673ffffffffffffffffffffffffffffffffffffffff168152602001908152602001600020549050919050565b606060018054610cab906130da565b80601f0160208091040260200160405190810160405280929190818152602001828054610cd7906130da565b8015610d245780601f10610cf957610100808354040283529160200191610d24565b820191906000526020600020905b815481529060010190602001808311610d0757829003601f168201915b5050505050905090565b610d40610d3961166b565b8383611a71565b5050565b610d55610d4f61166b565b8361172c565b610d94576040517f08c379a0000000000000000000000000000000000000000000000000000000008152600401610d8b9061337d565b60405180910390fd5b610da084848484611bde565b50505050565b600060098383604051610dba9291906132f2565b908152602001604051809103902060009054906101000a900473ffffffffffffffffffffffffffffffffffffffff16905092915050565b3373ffffffffffffffffffffffffffffffffffffffff1660098585604051610e1a9291906132f2565b908152602001604051809103902060009054906101000a900473ffffffffffffffffffffffffffffffffffffffff1673ffffffffffffffffffffffffffffffffffffffff1614610e9f576040517f08c379a0000000000000000000000000000000000000000000000000000000008152600401610e9690613533565b60405180910390fd5b8181600a8686604051610eb39291906132f2565b90815260200160405180910390209190610ece9291906127a7565b5050505050565b6060610ee0826115ff565b610f1f576040517f08c379a0000000000000000000000000000000000000000000000000000000008152600401610f16906135c5565b60405180910390fd5b6000600660008481526020019081526020016000208054610f3f906130da565b80601f0160208091040260200160405190810160405280929190818152602001828054610f6b906130da565b8015610fb85780601f10610f8d57610100808354040283529160200191610fb8565b820191906000526020600020905b815481529060010190602001808311610f9b57829003601f168201915b505050505090506000610fc9611c3a565b9050600081511415610fdf578192505050611022565b600082511115611014578082604051602001610ffc929190613616565b60405160208183030381529060405292505050611022565b61101d84611c51565b925050505b919050565b6000600560008473ffffffffffffffffffffffffffffffffffffffff1673ffffffffffffffffffffffffffffffffffffffff16815260200190815260200160002060008373ffffffffffffffffffffffffffffffffffffffff1673ffffffffffffffffffffffffffffffffffffffff16815260200190815260200160002060009054906101000a900460ff16905092915050565b600073ffffffffffffffffffffffffffffffffffffffff16600983836040516110e59291906132f2565b908152602001604051809103902060009054906101000a900473ffffffffffffffffffffffffffffffffffffffff1673ffffffffffffffffffffffffffffffffffffffff161461113457600080fd5b6000611140838361141e565b905080341015611185576040517f08c379a000000000000000000000000000000000000000000000000000000000815260040161117c90613686565b60405180910390fd5b60008383600860405160200161119d93929190613786565b6040516020818303038152906040529050600060405180610980016040528061095a81526020016143b861095a9139826040518060400160405280600d81526020017f3c2f746578743e3c2f7376673e00000000000000000000000000000000000000815250604051602001611215939291906137b7565b604051602081830303815290604052905060006112326007611cf8565b9050600061128387878080601f016020809104026020016040519081016040528093929190818152602001838380828437600081840152601f19601f82011690508083019250505050505050611d06565b9050600061129082611ebb565b90506112b56040518060600160405280602e8152602001614351602e9139868561201c565b60006112ee8660086112c6886120bb565b856040516020016112da94939291906139b0565b6040516020818303038152906040526120bb565b90506000816040516020016113039190613a71565b604051602081830303815290604052905061133560405180606001604052806039815260200161437f60399139612253565b6113746040518060400160405280600e81526020017f46696e616c20746f6b656e555249000000000000000000000000000000000000815250826114f9565b611395604051806060016040528060398152602001614d1260399139612253565b61139f33866122ec565b6113a9858261230a565b3360098b8b6040516113bc9291906132f2565b908152602001604051809103902060006101000a81548173ffffffffffffffffffffffffffffffffffffffff021916908373ffffffffffffffffffffffffffffffffffffffff160217905550611412600761237e565b50505050505050505050565b60008061146e84848080601f016020809104026020016040519081016040528093929190818152602001838380828437600081840152601f19601f82011690508083019250505050505050611d06565b9050600181116114b3576040517f08c379a00000000000000000000000000000000000000000000000000000000081526004016114aa90613b05565b60405180910390fd5b600381116114cc576706f05b59d3b200009150506114f3565b60048114156114e657670429d069189e00009150506114f3565b67016345785d8a00009150505b92915050565b611591828260405160240161150f929190613b25565b6040516020818303038152906040527f4b5c4277000000000000000000000000000000000000000000000000000000007bffffffffffffffffffffffffffffffffffffffffffffffffffffffff19166020820180517bffffffffffffffffffffffffffffffffffffffffffffffffffffffff8381831617835250505050612394565b5050565b60007f01ffc9a7000000000000000000000000000000000000000000000000000000007bffffffffffffffffffffffffffffffffffffffffffffffffffffffff1916827bffffffffffffffffffffffffffffffffffffffffffffffffffffffff1916149050919050565b60008073ffffffffffffffffffffffffffffffffffffffff166002600084815260200190815260200160002060009054906101000a900473ffffffffffffffffffffffffffffffffffffffff1673ffffffffffffffffffffffffffffffffffffffff1614159050919050565b600033905090565b816004600083815260200190815260200160002060006101000a81548173ffffffffffffffffffffffffffffffffffffffff021916908373ffffffffffffffffffffffffffffffffffffffff160217905550808273ffffffffffffffffffffffffffffffffffffffff166116e683610b32565b73ffffffffffffffffffffffffffffffffffffffff167f8c5be1e5ebec7d5bd14f71427d1e84f3dd0314c0f7b2291e5b200ac8c7c3b92560405160405180910390a45050565b6000611737826115ff565b611776576040517f08c379a000000000000000000000000000000000000000000000000000000000815260040161176d90613bce565b60405180910390fd5b600061178183610b32565b90508073ffffffffffffffffffffffffffffffffffffffff168473ffffffffffffffffffffffffffffffffffffffff1614806117f057508373ffffffffffffffffffffffffffffffffffffffff166117d8846106d5565b73ffffffffffffffffffffffffffffffffffffffff16145b8061180157506118008185611027565b5b91505092915050565b8273ffffffffffffffffffffffffffffffffffffffff1661182a82610b32565b73ffffffffffffffffffffffffffffffffffffffff1614611880576040517f08c379a000000000000000000000000000000000000000000000000000000000815260040161187790613c60565b60405180910390fd5b600073ffffffffffffffffffffffffffffffffffffffff168273ffffffffffffffffffffffffffffffffffffffff1614156118f0576040517f08c379a00000000000000000000000000000000000000000000000000000000081526004016118e790613cf2565b60405180910390fd5b6118fb8383836123bd565b611906600082611673565b6001600360008573ffffffffffffffffffffffffffffffffffffffff1673ffffffffffffffffffffffffffffffffffffffff16815260200190815260200160002060008282546119569190613d41565b925050819055506001600360008473ffffffffffffffffffffffffffffffffffffffff1673ffffffffffffffffffffffffffffffffffffffff16815260200190815260200160002060008282546119ad9190613d75565b92505081905550816002600083815260200190815260200160002060006101000a81548173ffffffffffffffffffffffffffffffffffffffff021916908373ffffffffffffffffffffffffffffffffffffffff160217905550808273ffffffffffffffffffffffffffffffffffffffff168473ffffffffffffffffffffffffffffffffffffffff167fddf252ad1be2c89b69c2b068fc378daa952ba7f163c4a11628f55a4df523b3ef60405160405180910390a4611a6c8383836123c2565b505050565b8173ffffffffffffffffffffffffffffffffffffffff168373ffffffffffffffffffffffffffffffffffffffff161415611ae0576040517f08c379a0000000000000000000000000000000000000000000000000000000008152600401611ad790613e17565b60405180910390fd5b80600560008573ffffffffffffffffffffffffffffffffffffffff1673ffffffffffffffffffffffffffffffffffffffff16815260200190815260200160002060008473ffffffffffffffffffffffffffffffffffffffff1673ffffffffffffffffffffffffffffffffffffffff16815260200190815260200160002060006101000a81548160ff0219169083151502179055508173ffffffffffffffffffffffffffffffffffffffff168373ffffffffffffffffffffffffffffffffffffffff167f17307eab39ab6107e8899845ad3d59bd9653f200f220920489ca2b5937696c3183604051611bd19190612984565b60405180910390a3505050565b611be984848461180a565b611bf5848484846123c7565b611c34576040517f08c379a0000000000000000000000000000000000000000000000000000000008152600401611c2b90613ea9565b60405180910390fd5b50505050565b606060405180602001604052806000815250905090565b6060611c5c826115ff565b611c9b576040517f08c379a0000000000000000000000000000000000000000000000000000000008152600401611c9290613f3b565b60405180910390fd5b6000611ca5611c3a565b90506000815111611cc55760405180602001604052806000815250611cf0565b80611ccf84611ebb565b604051602001611ce0929190613616565b6040516020818303038152906040525b915050919050565b600081600001549050919050565b60008060008084519050600092505b80821015611eb0576000858381518110611d3257611d31613f5b565b5b602001015160f81c60f81b9050608060f81b817effffffffffffffffffffffffffffffffffffffffffffffffffffffffffffff19161015611d8157600183611d7a9190613d75565b9250611e9c565b60e060f81b817effffffffffffffffffffffffffffffffffffffffffffffffffffffffffffff19161015611dc357600283611dbc9190613d75565b9250611e9b565b60f060f81b817effffffffffffffffffffffffffffffffffffffffffffffffffffffffffffff19161015611e0557600383611dfe9190613d75565b9250611e9a565b60f8801b817effffffffffffffffffffffffffffffffffffffffffffffffffffffffffffff19161015611e4657600483611e3f9190613d75565b9250611e99565b60fc60f81b817effffffffffffffffffffffffffffffffffffffffffffffffffffffffffffff19161015611e8857600583611e819190613d75565b9250611e98565b600683611e959190613d75565b92505b5b5b5b5b508280611ea890613f8a565b935050611d15565b829350505050919050565b60606000821415611f03576040518060400160405280600181526020017f30000000000000000000000000000000000000000000000000000000000000008152509050612017565b600082905060005b60008214611f35578080611f1e90613f8a565b915050600a82611f2e9190614002565b9150611f0b565b60008167ffffffffffffffff811115611f5157611f50612c8f565b5b6040519080825280601f01601f191660200182016040528015611f835781602001600182028036833780820191505090505b5090505b6000851461201057600182611f9c9190613d41565b9150600a85611fab9190614033565b6030611fb79190613d75565b60f81b818381518110611fcd57611fcc613f5b565b5b60200101907effffffffffffffffffffffffffffffffffffffffffffffffffffffffffffff1916908160001a905350600a856120099190614002565b9450611f87565b8093505050505b919050565b6120b683838360405160240161203493929190614064565b6040516020818303038152906040527ff362ca59000000000000000000000000000000000000000000000000000000007bffffffffffffffffffffffffffffffffffffffffffffffffffffffff19166020820180517bffffffffffffffffffffffffffffffffffffffffffffffffffffffff8381831617835250505050612394565b505050565b606060008251905060008114156120e4576040518060200160405280600081525091505061224e565b600060036002836120f59190613d75565b6120ff9190614002565b600461210b91906140a9565b9050600060208261211c9190613d75565b67ffffffffffffffff81111561213557612134612c8f565b5b6040519080825280601f01601f1916602001820160405280156121675781602001600182028036833780820191505090505b5090506000604051806060016040528060408152602001614d4b604091399050600181016020830160005b8681101561220b5760038101905062ffffff818a015116603f8160121c168401518060081b905060ff603f83600c1c1686015116810190508060081b905060ff603f8360061c1686015116810190508060081b905060ff603f831686015116810190508060e01b90508084526004840193505050612192565b506003860660018114612225576002811461223557612240565b613d3d60f01b6002830352612240565b603d60f81b60018303525b508484525050819450505050505b919050565b6122e9816040516024016122679190612a38565b6040516020818303038152906040527f41304fac000000000000000000000000000000000000000000000000000000007bffffffffffffffffffffffffffffffffffffffffffffffffffffffff19166020820180517bffffffffffffffffffffffffffffffffffffffffffffffffffffffff8381831617835250505050612394565b50565b61230682826040518060200160405280600081525061254f565b5050565b612313826115ff565b612352576040517f08c379a000000000000000000000000000000000000000000000000000000000815260040161234990614175565b60405180910390fd5b8060066000848152602001908152602001600020908051906020019061237992919061282d565b505050565b6001816000016000828254019250508190555050565b60008151905060006a636f6e736f6c652e6c6f679050602083016000808483855afa5050505050565b505050565b505050565b60006123e88473ffffffffffffffffffffffffffffffffffffffff166125aa565b15612542578373ffffffffffffffffffffffffffffffffffffffff1663150b7a0261241161166b565b8786866040518563ffffffff1660e01b815260040161243394939291906141ea565b6020604051808303816000875af192505050801561246f57506040513d601f19601f8201168201806040525081019061246c919061424b565b60015b6124f2573d806000811461249f576040519150601f19603f3d011682016040523d82523d6000602084013e6124a4565b606091505b506000815114156124ea576040517f08c379a00000000000000000000000000000000000000000000000000000000081526004016124e190613ea9565b60405180910390fd5b805181602001fd5b63150b7a0260e01b7bffffffffffffffffffffffffffffffffffffffffffffffffffffffff1916817bffffffffffffffffffffffffffffffffffffffffffffffffffffffff191614915050612547565b600190505b949350505050565b61255983836125cd565b61256660008484846123c7565b6125a5576040517f08c379a000000000000000000000000000000000000000000000000000000000815260040161259c90613ea9565b60405180910390fd5b505050565b6000808273ffffffffffffffffffffffffffffffffffffffff163b119050919050565b600073ffffffffffffffffffffffffffffffffffffffff168273ffffffffffffffffffffffffffffffffffffffff16141561263d576040517f08c379a0000000000000000000000000000000000000000000000000000000008152600401612634906142c4565b60405180910390fd5b612646816115ff565b15612686576040517f08c379a000000000000000000000000000000000000000000000000000000000815260040161267d90614330565b60405180910390fd5b612692600083836123bd565b6001600360008473ffffffffffffffffffffffffffffffffffffffff1673ffffffffffffffffffffffffffffffffffffffff16815260200190815260200160002060008282546126e29190613d75565b92505081905550816002600083815260200190815260200160002060006101000a81548173ffffffffffffffffffffffffffffffffffffffff021916908373ffffffffffffffffffffffffffffffffffffffff160217905550808273ffffffffffffffffffffffffffffffffffffffff16600073ffffffffffffffffffffffffffffffffffffffff167fddf252ad1be2c89b69c2b068fc378daa952ba7f163c4a11628f55a4df523b3ef60405160405180910390a46127a3600083836123c2565b5050565b8280546127b3906130da565b90600052602060002090601f0160209004810192826127d5576000855561281c565b82601f106127ee57803560ff191683800117855561281c565b8280016001018555821561281c579182015b8281111561281b578235825591602001919060010190612800565b5b50905061282991906128b3565b5090565b828054612839906130da565b90600052602060002090601f01602090048101928261285b57600085556128a2565b82601f1061287457805160ff19168380011785556128a2565b828001600101855582156128a2579182015b828111156128a1578251825591602001919060010190612886565b5b5090506128af91906128b3565b5090565b5b808211156128cc5760008160009055506001016128b4565b5090565b6000604051905090565b600080fd5b600080fd5b60007fffffffff0000000000000000000000000000000000000000000000000000000082169050919050565b612919816128e4565b811461292457600080fd5b50565b60008135905061293681612910565b92915050565b600060208284031215612952576129516128da565b5b600061296084828501612927565b91505092915050565b60008115159050919050565b61297e81612969565b82525050565b60006020820190506129996000830184612975565b92915050565b600081519050919050565b600082825260208201905092915050565b60005b838110156129d95780820151818401526020810190506129be565b838111156129e8576000848401525b50505050565b6000601f19601f8301169050919050565b6000612a0a8261299f565b612a1481856129aa565b9350612a248185602086016129bb565b612a2d816129ee565b840191505092915050565b60006020820190508181036000830152612a5281846129ff565b905092915050565b6000819050919050565b612a6d81612a5a565b8114612a7857600080fd5b50565b600081359050612a8a81612a64565b92915050565b600060208284031215612aa657612aa56128da565b5b6000612ab484828501612a7b565b91505092915050565b600073ffffffffffffffffffffffffffffffffffffffff82169050919050565b6000612ae882612abd565b9050919050565b612af881612add565b82525050565b6000602082019050612b136000830184612aef565b92915050565b612b2281612add565b8114612b2d57600080fd5b50565b600081359050612b3f81612b19565b92915050565b60008060408385031215612b5c57612b5b6128da565b5b6000612b6a85828601612b30565b9250506020612b7b85828601612a7b565b9150509250929050565b600080fd5b600080fd5b600080fd5b60008083601f840112612baa57612ba9612b85565b5b8235905067ffffffffffffffff811115612bc757612bc6612b8a565b5b602083019150836001820283011115612be357612be2612b8f565b5b9250929050565b60008060208385031215612c0157612c006128da565b5b600083013567ffffffffffffffff811115612c1f57612c1e6128df565b5b612c2b85828601612b94565b92509250509250929050565b600080600060608486031215612c5057612c4f6128da565b5b6000612c5e86828701612b30565b9350506020612c6f86828701612b30565b9250506040612c8086828701612a7b565b9150509250925092565b600080fd5b7f4e487b7100000000000000000000000000000000000000000000000000000000600052604160045260246000fd5b612cc7826129ee565b810181811067ffffffffffffffff82111715612ce657612ce5612c8f565b5b80604052505050565b6000612cf96128d0565b9050612d058282612cbe565b919050565b600067ffffffffffffffff821115612d2557612d24612c8f565b5b612d2e826129ee565b9050602081019050919050565b82818337600083830152505050565b6000612d5d612d5884612d0a565b612cef565b905082815260208101848484011115612d7957612d78612c8a565b5b612d84848285612d3b565b509392505050565b600082601f830112612da157612da0612b85565b5b8135612db1848260208601612d4a565b91505092915050565b600060208284031215612dd057612dcf6128da565b5b600082013567ffffffffffffffff811115612dee57612ded6128df565b5b612dfa84828501612d8c565b91505092915050565b600060208284031215612e1957612e186128da565b5b6000612e2784828501612b30565b91505092915050565b612e3981612a5a565b82525050565b6000602082019050612e546000830184612e30565b92915050565b612e6381612969565b8114612e6e57600080fd5b50565b600081359050612e8081612e5a565b92915050565b60008060408385031215612e9d57612e9c6128da565b5b6000612eab85828601612b30565b9250506020612ebc85828601612e71565b9150509250929050565b600067ffffffffffffffff821115612ee157612ee0612c8f565b5b612eea826129ee565b9050602081019050919050565b6000612f0a612f0584612ec6565b612cef565b905082815260208101848484011115612f2657612f25612c8a565b5b612f31848285612d3b565b509392505050565b600082601f830112612f4e57612f4d612b85565b5b8135612f5e848260208601612ef7565b91505092915050565b60008060008060808587031215612f8157612f806128da565b5b6000612f8f87828801612b30565b9450506020612fa087828801612b30565b9350506040612fb187828801612a7b565b925050606085013567ffffffffffffffff811115612fd257612fd16128df565b5b612fde87828801612f39565b91505092959194509250565b60008060008060408587031215613004576130036128da565b5b600085013567ffffffffffffffff811115613022576130216128df565b5b61302e87828801612b94565b9450945050602085013567ffffffffffffffff811115613051576130506128df565b5b61305d87828801612b94565b925092505092959194509250565b60008060408385031215613082576130816128da565b5b600061309085828601612b30565b92505060206130a185828601612b30565b9150509250929050565b7f4e487b7100000000000000000000000000000000000000000000000000000000600052602260045260246000fd5b600060028204905060018216806130f257607f821691505b60208210811415613106576131056130ab565b5b50919050565b7f4552433732313a20617070726f76656420717565727920666f72206e6f6e657860008201527f697374656e7420746f6b656e0000000000000000000000000000000000000000602082015250565b6000613168602c836129aa565b91506131738261310c565b604082019050919050565b600060208201905081810360008301526131978161315b565b9050919050565b7f4552433732313a20617070726f76616c20746f2063757272656e74206f776e6560008201527f7200000000000000000000000000000000000000000000000000000000000000602082015250565b60006131fa6021836129aa565b91506132058261319e565b604082019050919050565b60006020820190508181036000830152613229816131ed565b9050919050565b7f4552433732313a20617070726f76652063616c6c6572206973206e6f74206f7760008201527f6e6572206e6f7220617070726f76656420666f7220616c6c0000000000000000602082015250565b600061328c6038836129aa565b915061329782613230565b604082019050919050565b600060208201905081810360008301526132bb8161327f565b9050919050565b600081905092915050565b60006132d983856132c2565b93506132e6838584612d3b565b82840190509392505050565b60006132ff8284866132cd565b91508190509392505050565b7f4552433732313a207472616e736665722063616c6c6572206973206e6f74206f60008201527f776e6572206e6f7220617070726f766564000000000000000000000000000000602082015250565b60006133676031836129aa565b91506133728261330b565b604082019050919050565b600060208201905081810360008301526133968161335a565b9050919050565b7f4552433732313a206f776e657220717565727920666f72206e6f6e657869737460008201527f656e7420746f6b656e0000000000000000000000000000000000000000000000602082015250565b60006133f96029836129aa565b91506134048261339d565b604082019050919050565b60006020820190508181036000830152613428816133ec565b9050919050565b7f4552433732313a2062616c616e636520717565727920666f7220746865207a6560008201527f726f206164647265737300000000000000000000000000000000000000000000602082015250565b600061348b602a836129aa565b91506134968261342f565b604082019050919050565b600060208201905081810360008301526134ba8161347e565b9050919050565b7f43616e6e6f7420736574207265636f726420666f72206120646f6d61696e207960008201527f6f7520646f206e6f74206f776e21000000000000000000000000000000000000602082015250565b600061351d602e836129aa565b9150613528826134c1565b604082019050919050565b6000602082019050818103600083015261354c81613510565b9050919050565b7f45524337323155524953746f726167653a2055524920717565727920666f722060008201527f6e6f6e6578697374656e7420746f6b656e000000000000000000000000000000602082015250565b60006135af6031836129aa565b91506135ba82613553565b604082019050919050565b600060208201905081810360008301526135de816135a2565b9050919050565b60006135f08261299f565b6135fa81856132c2565b935061360a8185602086016129bb565b80840191505092915050565b600061362282856135e5565b915061362e82846135e5565b91508190509392505050565b7f4e6f7420656e6f756768204d6174696320706169642100000000000000000000600082015250565b60006136706016836129aa565b915061367b8261363a565b602082019050919050565b6000602082019050818103600083015261369f81613663565b9050919050565b7f2e00000000000000000000000000000000000000000000000000000000000000600082015250565b60006136dc6001836132c2565b91506136e7826136a6565b600182019050919050565b60008190508160005260206000209050919050565b60008154613714816130da565b61371e81866132c2565b94506001821660008114613739576001811461374a5761377d565b60ff1983168652818601935061377d565b613753856136f2565b60005b8381101561377557815481890152600182019150602081019050613756565b838801955050505b50505092915050565b60006137938285876132cd565b915061379e826136cf565b91506137aa8284613707565b9150819050949350505050565b60006137c382866135e5565b91506137cf82856135e5565b91506137db82846135e5565b9150819050949350505050565b7f7b226e616d65223a202200000000000000000000000000000000000000000000600082015250565b600061381e600a836132c2565b9150613829826137e8565b600a82019050919050565b7f222c20226465736372697074696f6e223a20224120646f6d61696e206f6e207460008201527f6865202e00000000000000000000000000000000000000000000000000000000602082015250565b60006138906024836132c2565b915061389b82613834565b602482019050919050565b7f206e616d652073657276696365222c2022696d616765223a2022646174613a6960008201527f6d6167652f7376672b786d6c3b6261736536342c000000000000000000000000602082015250565b60006139026034836132c2565b915061390d826138a6565b603482019050919050565b7f222c226c656e677468223a220000000000000000000000000000000000000000600082015250565b600061394e600c836132c2565b915061395982613918565b600c82019050919050565b7f227d000000000000000000000000000000000000000000000000000000000000600082015250565b600061399a6002836132c2565b91506139a582613964565b600282019050919050565b60006139bb82613811565b91506139c782876135e5565b91506139d282613883565b91506139de8286613707565b91506139e9826138f5565b91506139f582856135e5565b9150613a0082613941565b9150613a0c82846135e5565b9150613a178261398d565b915081905095945050505050565b7f646174613a6170706c69636174696f6e2f6a736f6e3b6261736536342c000000600082015250565b6000613a5b601d836132c2565b9150613a6682613a25565b601d82019050919050565b6000613a7c82613a4e565b9150613a8882846135e5565b915081905092915050565b7f446f6d61696e206c656e677468206d757374206265206772656174657220746860008201527f616e203021000000000000000000000000000000000000000000000000000000602082015250565b6000613aef6025836129aa565b9150613afa82613a93565b604082019050919050565b60006020820190508181036000830152613b1e81613ae2565b9050919050565b60006040820190508181036000830152613b3f81856129ff565b90508181036020830152613b5381846129ff565b90509392505050565b7f4552433732313a206f70657261746f7220717565727920666f72206e6f6e657860008201527f697374656e7420746f6b656e0000000000000000000000000000000000000000602082015250565b6000613bb8602c836129aa565b9150613bc382613b5c565b604082019050919050565b60006020820190508181036000830152613be781613bab565b9050919050565b7f4552433732313a207472616e736665722066726f6d20696e636f72726563742060008201527f6f776e6572000000000000000000000000000000000000000000000000000000602082015250565b6000613c4a6025836129aa565b9150613c5582613bee565b604082019050919050565b60006020820190508181036000830152613c7981613c3d565b9050919050565b7f4552433732313a207472616e7366657220746f20746865207a65726f2061646460008201527f7265737300000000000000000000000000000000000000000000000000000000602082015250565b6000613cdc6024836129aa565b9150613ce782613c80565b604082019050919050565b60006020820190508181036000830152613d0b81613ccf565b9050919050565b7f4e487b7100000000000000000000000000000000000000000000000000000000600052601160045260246000fd5b6000613d4c82612a5a565b9150613d5783612a5a565b925082821015613d6a57613d69613d12565b5b828203905092915050565b6000613d8082612a5a565b9150613d8b83612a5a565b9250827fffffffffffffffffffffffffffffffffffffffffffffffffffffffffffffffff03821115613dc057613dbf613d12565b5b828201905092915050565b7f4552433732313a20617070726f766520746f2063616c6c657200000000000000600082015250565b6000613e016019836129aa565b9150613e0c82613dcb565b602082019050919050565b60006020820190508181036000830152613e3081613df4565b9050919050565b7f4552433732313a207472616e7366657220746f206e6f6e20455243373231526560008201527f63656976657220696d706c656d656e7465720000000000000000000000000000602082015250565b6000613e936032836129aa565b9150613e9e82613e37565b604082019050919050565b60006020820190508181036000830152613ec281613e86565b9050919050565b7f4552433732314d657461646174613a2055524920717565727920666f72206e6f60008201527f6e6578697374656e7420746f6b656e0000000000000000000000000000000000602082015250565b6000613f25602f836129aa565b9150613f3082613ec9565b604082019050919050565b60006020820190508181036000830152613f5481613f18565b9050919050565b7f4e487b7100000000000000000000000000000000000000000000000000000000600052603260045260246000fd5b6000613f9582612a5a565b91507fffffffffffffffffffffffffffffffffffffffffffffffffffffffffffffffff821415613fc857613fc7613d12565b5b600182019050919050565b7f4e487b7100000000000000000000000000000000000000000000000000000000600052601260045260246000fd5b600061400d82612a5a565b915061401883612a5a565b92508261402857614027613fd3565b5b828204905092915050565b600061403e82612a5a565b915061404983612a5a565b92508261405957614058613fd3565b5b828206905092915050565b6000606082019050818103600083015261407e81866129ff565b9050818103602083015261409281856129ff565b90506140a16040830184612e30565b949350505050565b60006140b482612a5a565b91506140bf83612a5a565b9250817fffffffffffffffffffffffffffffffffffffffffffffffffffffffffffffffff04831182151516156140f8576140f7613d12565b5b828202905092915050565b7f45524337323155524953746f726167653a2055524920736574206f66206e6f6e60008201527f6578697374656e7420746f6b656e000000000000000000000000000000000000602082015250565b600061415f602e836129aa565b915061416a82614103565b604082019050919050565b6000602082019050818103600083015261418e81614152565b9050919050565b600081519050919050565b600082825260208201905092915050565b60006141bc82614195565b6141c681856141a0565b93506141d68185602086016129bb565b6141df816129ee565b840191505092915050565b60006080820190506141ff6000830187612aef565b61420c6020830186612aef565b6142196040830185612e30565b818103606083015261422b81846141b1565b905095945050505050565b60008151905061424581612910565b92915050565b600060208284031215614261576142606128da565b5b600061426f84828501614236565b91505092915050565b7f4552433732313a206d696e7420746f20746865207a65726f2061646472657373600082015250565b60006142ae6020836129aa565b91506142b982614278565b602082019050919050565b600060208201905081810360008301526142dd816142a1565b9050919050565b7f4552433732313a20746f6b656e20616c7265616479206d696e74656400000000600082015250565b600061431a601c836129aa565b9150614325826142e4565b602082019050919050565b600060208201905081810360008301526143498161430d565b905091905056fe5265676973746572696e67202573206f6e2074686520636f6e7472616374207769746820746f6b656e49642025640a2d2d2d2d2d2d2d2d2d2d2d2d2d2d2d2d2d2d2d2d2d2d2d2d2d2d2d2d2d2d2d2d2d2d2d2d2d2d2d2d2d2d2d2d2d2d2d2d2d2d2d2d2d2d2d2d3c73766720786d6c6e733d22687474703a2f2f7777772e77332e6f72672f323030302f737667222076696577426f783d223020302038303020383030222077696474683d2238303022206865696768743d2238303022207374796c653d226261636b67726f756e642d636f6c6f723a23333039316666223e3c646566733e3c7061747465726e2069643d2261222077696474683d22343022206865696768743d22343022207061747465726e556e6974733d227573657253706163654f6e55736522207061747465726e5472616e73666f726d3d22726f7461746528333529207363616c65283329223e3c7061746820643d224d372e39332032352e343836762d366c382e383320352e3176366c2d382e38332d352e315a222066696c6c3d2223666662303566222f3e3c7061746820643d224d31362e37362033302e353837762d366c31322e30382d312e38362e30303320362d31322e30383320312e38365a222066696c6c3d2223633535303030222f3e3c7061746820643d224d33322e30372032312e373437762d366c2d332e323320362e393876366c332e32332d362e39385a222066696c6c3d2223666662303566222f3e3c7061746820643d226d31312e3136312031322e3531362031322e3037342d312e38363720382e38333920352e3130322d332e32333520362e39372d31322e30373420312e3836382d382e38342d352e31303220332e3233362d362e39375a222066696c6c3d2223666637663330222f3e3c2f7061747465726e3e3c66696c7465722069643d22622220636f6c6f722d696e746572706f6c6174696f6e2d66696c746572733d2273524742222066696c746572556e6974733d227573657253706163654f6e55736522206865696768743d22383030222077696474683d22383030223e3c666544726f70536861646f772064783d2232222064793d22332220737464446576696174696f6e3d2231302220666c6f6f642d6f7061636974793d22323235222077696474683d223230302522206865696768743d2232303025222f3e3c2f66696c7465723e3c2f646566733e3c706174682066696c6c3d2275726c28236129222066696c7465723d2275726c282362292220643d224d302030683830307638303048307a22207472616e73666f726d3d227363616c6528312e3529222f3e3c706174682066696c7465723d2275726c282362292220643d224d3231382e353839203132382e3834376131332e3134372031332e3134372030203020302d31332e31383220306c2d33302e3234332031382e3039362d32302e35352031312e3830322d33302e3234332031382e3039366131332e3134372031332e3134372030203020312d31332e31383220304c38372e3135203136322e3637386131332e35362031332e35362030203020312d342e3736372d342e3834382031332e3632332031332e3632332030203020312d312e3832342d362e353631762d32372e39336131322e3831332031322e38313320302030203120312e3731362d362e3632342031322e37352031322e373520302030203120342e3837352d342e3738356c32332e3635322d31332e37376131332e3134372031332e3134372030203020312031332e31383220306c32332e3635322031332e37376131332e35362031332e353620302030203120342e37363720342e3834382031332e3632332031332e36323320302030203120312e38323420362e3536317631382e3039366c32302e35352d31322e313935762d31382e3039366131322e3831332031322e3831332030203020302d312e3731362d362e3632342031322e37352031322e37352030203020302d342e3837352d342e3738354c3132342e3336382037332e37376131332e3134372031332e3134372030203020302d31332e31383220304c36362e3539342039392e3733356131322e37352031322e37352030203020302d342e38373520342e3738352031322e38322031322e38322030203020302d312e37313620362e3632347635322e3332336131322e3831332031322e38313320302030203020312e37313620362e3632342031322e37352031322e373520302030203020342e38373520342e3738356c34342e3539322032352e3936356131332e3134372031332e3134372030203020302031332e31383220306c33302e3234332d31372e3730332032302e35352d31322e3139352033302e3234332d31372e3730336131332e3134372031332e3134372030203020312031332e31383220306c32332e3635322031332e37376131332e35362031332e353620302030203120342e37363720342e3834382031332e3632332031332e36323320302030203120312e38323420362e3536317632372e3933336131322e3831332031322e3831332030203020312d312e37313620362e3632342031322e37352031322e37352030203020312d342e38373520342e3738356c2d32332e3635322031342e3136336131332e3134372031332e3134372030203020312d31332e31383220306c2d32332e3635322d31332e37376131332e35362031332e35362030203020312d342e3736372d342e3834382031332e35392031332e35392030203020312d312e3832342d362e353631762d31382e3039366c2d32302e35352031322e3139357631382e3039366131322e3831332031322e38313320302030203020312e37313620362e3632342031322e37352031322e373520302030203020342e38373520342e3738356c34342e3539322032352e3936356131332e3134372031332e3134372030203020302031332e31383220306c34342e3539322d32352e39363563312e3937312d312e31383220332e3631322d322e383520342e3736372d342e38343873312e3738322d342e32353420312e3832372d362e353631762d35322e3332366131322e3831332031322e3831332030203020302d312e3731362d362e3632342031322e37352031322e37352030203020302d342e3837352d342e3738356c2d34342e3937392d32362e3335387a222066696c6c3d2223666666222f3e3c7465787420783d2239362220793d223638352220666f6e742d73697a653d223830222066696c6c3d2223666666222066696c7465723d2275726c282362292220666f6e742d66616d696c793d22506c7573204a616b617274612053616e732c44656a6156752053616e732c4e6f746f20436f6c6f7220456d6f6a692c4170706c6520436f6c6f7220456d6f6a692c73616e732d73657269662220666f6e742d7765696768743d22626f6c64223e2d2d2d2d2d2d2d2d2d2d2d2d2d2d2d2d2d2d2d2d2d2d2d2d2d2d2d2d2d2d2d2d2d2d2d2d2d2d2d2d2d2d2d2d2d2d2d2d2d2d2d2d2d2d2d2d0a4142434445464748494a4b4c4d4e4f505152535455565758595a6162636465666768696a6b6c6d6e6f707172737475767778797a303132333435363738392b2fa2646970667358221220bf839e53192b3b89e2126b84fda9452b118806624e1dafb3ea3c4847ddf0f3de64736f6c634300080a0033",
  "linkReferences": {},
  "deployedLinkReferences": {}
}